:020000040800F2
:10000000008001202D0C0008410B0008490B00085E
:10001000510B0008590B0008610B0008000000009C
:10002000000000000000000000000000690B000854
:10003000770B000800000000850B0008930B0008F8
:100040007D0C00087D0C00087D0C00087D0C00086C
:100050007D0C00087D0C00089F0B0008AD0B00080C
:10006000BB0B0008C90B0008D70B00087D0C00086B
:100070007D0C00087D0C00087D0C00087D0C00083C
:100080007D0C00087D0C00087D0C000800000000BD
:10009000000000000000000000000000E50B000868
:1000A0007D0C00087D0C00087D0C00087D0C00080C
:1000B0007D0C0008F50B00087D0C00087D0C000885
:1000C0007D0C00087D0C00087D0C00087D0C0008EC
:1000D0007D0C00087D0C00087D0C0008000000006D
:1000E0007D0C00087D0C00087D0C0008000000005D
:1000F0000000000000000000000000007D0C00086F
:10010000000000007D0C00087D0C00087D0C00083C
:1001100000000000000000000000000000000000DF
:100120007D0C00087D0C00087D0C00087D0C00088B
:100130007D0C00080000000000000000000000002E
:100140000000000000000000000000007D0C00081E
:100150007D0C00087D0C00087D0C00087D0C00085B
:100160007D0C00087D0C000800000000000000006D
:10017000000000000000000000000000000000007F
:10018000000000007D0C00080000000000000000DE
:040190007D0C0008DA
:1001940010B5054C237833B9044B13B10448AFF3BD
:1001A40000800123237010BD0C000020000000001B
:1001B400242E000808B5034B1BB103490348AFF3D1
:1001C400008008BD0000000010000020242E00085C
:1001D40053B94AB9002908BF00281CBF4FF0FF31AA
:1001E4004FF0FF3000F088B9ADF1080C6DE904CE92
:1001F40000F006F8DDF804E0DDE9022304B07047FE
:100204002DE9F047089D8E4604468846002B4AD1C6
:100214008A42174662D9B2FA82F64EB1C6F1200379
:1002240001FA06F820FA03F3B74043EA0808B44099
:100234004FEA174E1FFA87FCB8FBFEF1230C0EFBA6
:10024400118843EA084301FB0CF29A4209D9FB18CE
:1002540001F1FF3080F0EA809A4240F2E7800239EF
:100264003B449A1AA3B2B2FBFEF00EFB102243EAFF
:10027400024300FB0CFC9C4509D9FB1800F1FF323A
:1002840080F0D6809C4540F2D3803B44023840EA5B
:100294000140A3EB0C0300211DB1F3400022C5E98A
:1002A4000032BDE8F0878B4205D90DB1C5E90001E4
:1002B40000210846F5E7B3FA83F1002946D17345D6
:1002C40002D3824200F20581841A6EEB03020120FC
:1002D4009046002DE5D0C5E90048E2E7002A00F089
:1002E4009080B2FA82F6002E40F0A4808A1A030CA1
:1002F4004FEA174E80B2BCB20121B2FBFEFC0EFBEA
:100304001C2243EA024304FB0CF29A4207D9FB186D
:100314000CF1FF3802D29A4200F2E080C4469B1AE4
:10032400B3FBFEF20EFB123340EA034302FB04F478
:100334009C4207D9FB1802F1FF3002D29C4200F222
:10034400CA8002461B1B42EA0C40A5E7C1F1200605
:100354008B4022FA06F71F430EFA01F420FA06F343
:100364002EFA06FE4FEA1749234300FA01F81FFA52
:1003740087FCBEFBF9F01C0C09FB10EE44EA0E44AA
:1003840000FB0CFEA64502FA01F209D93C1900F162
:10039400FF3A80F09C80A64540F2998002383C44A4
:1003A400A4EB0E041FFA83FEB4FBF9F309FB134418
:1003B4004EEA044403FB0CFCA44508D93C1903F1A0
:1003C400FF3E80F08280A4457FD9023B3C4443EA4F
:1003D4000040A4EB0C04A0FB02EC64457346E14628
:1003E40062D35FD05DB1B8EB030264EB090404FA95
:1003F40006F622FA01F31E43CC40C5E9006400214D
:100404004FE7B1FBF2FC010C41EA0E4180B240EA35
:1004140001423B4638463C46B846BE462026B1FB20
:10042400F7F1A2EB080241EA0C4166E7014618E73E
:1004340010462CE7C6F120022EFA02F3B740B14071
:1004440020FA02F24FEA174E0A43B3FBFEF8BCB29D
:100454000EFB1833110C41EA034108FB04F9B040C8
:1004640089454FEA104380B23ED9791808F1FF3C20
:1004740001D289451FD8A1EB0901B1FBFEF909FBA3
:1004840004F80EFB191192B242EA0142424529D204
:10049400BA1809F1FF31C4D24245C2D2A9F102010E
:1004A4003A44BEE7F0459DD2BEEB02036CEB070C69
:1004B4000138E14696E7A7EB09094944A8F1020C83
:1004C400B1FBFEF909FB04F8DBE773467FE750460E
:1004D40066E70846FDE63B44023A33E7ACF1020C1A
:1004E4003B441CE749469CE7A1EB0901C446B1FB28
:1004F400FEF909FB04F8C4E7704700BF80B582B079
:1005040000AF0346FB800B4B1B78012B0DD0094B2E
:1005140001221A70084AFB881380084B1B680022CA
:100524005A62064801F02CFC00E000BF0837BD46C3
:1005340080BD00BF2A000020280000208400002085
:1005440080B584B000AF7860786801F07BFC2C4BF8
:100554001B88BB812A4B00221A802A4B00221A7066
:10056400BB89102B02D0BB89202B07D1BB8919462C
:10057400254800F08BFE0346FB7306E0BB89194651
:10058400224800F083FE0346FB73FB7B002B32D131
:100594000623BB73BB89012B02D10023BB731CE070
:1005A400BB89022B02D10123BB7316E0BB89042B48
:1005B40002D10223BB7310E0BB89082B02D10323B1
:1005C400BB730AE0BB89102B02D10423BB7304E084
:1005D400BB89202B01D10523BB73BB7B062B0AD01F
:1005E400BB7B3033DBB2FB7207F10B0164230122C6
:1005F400074802F02DF800BF1037BD4680BD00BF8C
:10060400280000202A0000200004024000000240CC
:10061400CC00002080B500AF00F030FB00F00AF8F9
:1006240000F016F900F09CF800F0E8F800F062F829
:1006340000BFFDE780B594B000AF07F1200330227E
:100644000021184602F0C0FB07F10C0300221A60D7
:100654005A609A60DA601A610023BB60234B1B6CFA
:10066400224A43F080531364204B1B6C03F08053E5
:10067400BB60BB6800237B601D4B1B6823F44043B5
:100684001B4A43F400431360194B1B6803F44043B3
:100694007B607B6802233B620123FB6210233B6384
:1006A4000023BB6307F12003184600F039FE03461C
:1006B400002B01D000F05CF90F23FB6000233B61A9
:1006C40000237B610023BB610023FB6107F10C0362
:1006D4000021184601F09CF80346002B01D000F0DD
:1006E40047F900BF5037BD4680BD00BF0038024007
:1006F4000070004080B500AF174B184A1A60164BC3
:100704004FF482725A60144B00229A60124B0022FA
:10071400DA60114B00221A610F4B00225A610E4B12
:100724004FF400729A610C4B0822DA610A4B0022E2
:100734001A62094B00225A62074B00229A62064B46
:100744000A22DA62044801F043FA0346002B01D07E
:1007540000F00EF900BF80BD2C00002000380040DE
:1007640080B586B000AF07F1080300221A605A6012
:100774009A60DA603B4600221A605A601D4B1E4A9A
:100784001A601C4B43F67F625A601A4B00229A602F
:10079400184B3122DA60174B00221A61154B0022E4
:1007A4009A61144801F09DFA0346002B01D000F031
:1007B400DFF84FF48053BB6007F1080319460D4876
:1007C40001F05FFC0346002B01D000F0D1F80023B8
:1007D4003B6000237B603B461946064801F066FEF9
:1007E4000346002B01D000F0C3F800BF1837BD4604
:1007F40080BD00BF840000200004004080B500AF2D
:10080400114B124A1A60104B4FF416525A600E4B99
:1008140000229A600C4B0022DA600B4B00221A6112
:10082400094B0C225A61084B00229A61064B0022A4
:10083400DA61054801F0BCFE0346002B01D000F04C
:1008440097F800BF80BD00BFCC000020001001401D
:1008540080B588B000AF07F10C0300221A605A601B
:100864009A60DA601A610023BB603E4B1B6B3D4A01
:1008740043F0010313633B4B1B6B03F00103BB60A9
:10088400BB6800237B60374B1B6B364A43F0020383
:100894001363344B1B6B03F002037B607B68002201
:1008A40040F2C771304800F009FD0F23FB604FF49C
:1008B40004133B6101237B6107F10C0319462B48A8
:1008C40000F060FB40F2C773FB6001233B6100232F
:1008D4007B610023BB6107F10C031946224800F039
:1008E40051FB3023FB604FF404133B6101237B6114
:1008F40007F10C0319461C4800F044FB00220021B8
:10090400062000F008FB062000F021FB0022002155
:10091400072000F000FB072000F019FB0022002153
:10092400082000F0F8FA082000F011FB0022002152
:10093400092000F0F0FA092000F009FB0022002150
:100944000A2000F0E8FA0A2000F001FB002200214E
:10095400172000F0E0FA172000F0F9FA00BF203762
:10096400BD4680BD00380240000402400000024041
:1009740080B400AF72B600BF00BFFDE780B483B09F
:1009840000AF00237B60104B5B6C0F4A43F4804341
:1009940053640D4B5B6C03F480437B607B680023E2
:1009A4003B60094B1B6C084A43F080531364064BAD
:1009B4001B6C03F080533B603B6800BF0C37BD46A3
:1009C4005DF8047B704700BF0038024080B58AB0F0
:1009D40000AF786007F1140300221A605A609A602D
:1009E400DA601A617B681B68194A93422CD1002390
:1009F4003B61184B1B6C174A43F480431364154B3B
:100A04001B6C03F480433B613B690023FB60114B87
:100A14001B6B104A43F0020313630E4B1B6B03F072
:100A24000203FB60FB684FF460437B610223BB61FC
:100A34000023FB6103233B6205237B6207F114035C
:100A44001946054800F09EFA00BF2837BD4680BD10
:100A540000380040003802400004024080B584B0F1
:100A640000AF78607B681B680E4A934215D100235F
:100A7400FB600D4B1B6C0C4A43F0020313640A4BDE
:100A84001B6C03F00203FB60FB68002200211D20A5
:100A940000F041FA1D2000F05AFA00BF1037BD469D
:100AA40080BD00BF000400400038024080B58AB019
:100AB40000AF786007F1140300221A605A609A604C
:100AC400DA601A617B681B68194A93422CD10023AF
:100AD4003B61184B5B6C174A43F010035364154B8E
:100AE4005B6C03F010033B613B690023FB60114B1B
:100AF4001B6B104A43F0010313630E4B1B6B03F093
:100B04000103FB60FB684FF4C0637B610223BB619C
:100B14000023FB6103233B6207237B6207F1140379
:100B24001946054800F02EFA00BF2837BD4680BD9F
:100B340000100140003802400000024080B400AFC1
:100B440000BFFDE780B400AF00BFFDE780B400AF95
:100B540000BFFDE780B400AF00BFFDE780B400AF85
:100B640000BFFDE780B400AF00BFBD465DF8047B65
:100B7400704780B400AF00BFBD465DF8047B70478A
:100B840080B400AF00BFBD465DF8047B704780B5FC
:100B940000AF00F0C5F800BF80BD80B500AF0120F4
:100BA40000F0A6FB00BF80BD80B500AF022000F0BE
:100BB4009FFB00BF80BD80B500AF042000F098FB10
:100BC40000BF80BD80B500AF082000F091FB00BFDE
:100BD40080BD80B500AF102000F08AFB00BF80BD4F
:100BE40080B500AF202000F083FB00BF80BD000073
:100BF40080B500AF024801F054F900BF80BD00BFCA
:100C04008400002080B400AF064BD3F88830054A36
:100C140043F47003C2F8883000BFBD465DF8047B1E
:100C2400704700BF00ED00E0DFF834D0FFF7EAFFC3
:100C34000C480D490D4A002302E0D458C450043333
:100C4400C4188C42F9D30A4A0A4C002301E0136009
:100C54000432A242FBD302F0BFF8FFF7DBFC70477B
:100C640000800120000000200C000020642E0008F9
:100C74000C00002018010020FEE7000080B500AF42
:100C84000E4B1B680D4A43F4007313600B4B1B6837
:100C94000A4A43F480631360084B1B68074A43F411
:100CA40080731360032000F02BF90F2000F008F884
:100CB400FFF764FE0023184680BD00BF003C0240DD
:100CC40080B582B000AF7860124B1A68124B1B7863
:100CD40019464FF47A73B3FBF1F3B2FBF3F31846FE
:100CE40000F043F90346002B01D001230EE07B689A
:100CF4000F2B0AD8002279684FF0FF3000F00BF96F
:100D0400064A7B681360002300E001231846083775
:100D1400BD4680BD00000020080000200400002023
:100D240080B400AF064B1B781A46064B1B6813446D
:100D3400044A136000BFBD465DF8047B704700BFE2
:100D4400080000201401002080B400AF034B1B688E
:100D54001846BD465DF8047B704700BF14010020AF
:100D640080B485B000AF78607B6803F00703FB6054
:100D74000C4BDB68BB60BA684FF6FF031340BB60E3
:100D8400FB681A02BB68134343F0BF6343F40033A8
:100D9400BB60044ABB68D36000BF1437BD465DF82E
:100DA400047B704700ED00E080B400AF044BDB68C7
:100DB4001B0A03F007031846BD465DF8047B704721
:100DC40000ED00E080B483B000AF0346FB7197F9F7
:100DD4000730002B0BDBFB7903F01F02074997F95F
:100DE40007305B09012000FA02F241F8232000BF1A
:100DF4000C37BD465DF8047B704700BF00E100E09E
:100E040080B483B000AF03463960FB7197F90730B3
:100E1400002B0ADB3B68DAB20C4997F90730120160
:100E2400D2B20B4483F800230AE03B68DAB20849E3
:100E3400FB7903F00F03043B1201D2B20B441A7680
:100E440000BF0C37BD465DF8047B704700E100E04D
:100E540000ED00E080B489B000AFF860B9607A605A
:100E6400FB6803F00703FB61FB69C3F10703042B71
:100E740028BF0423BB61FB690433062B02D9FB6939
:100E8400033B00E000237B614FF0FF32BB6902FAB1
:100E940003F3DA43BB681A407B699A404FF0FF3191
:100EA4007B6901FA03F3D9437B680B40134318466B
:100EB4002437BD465DF8047B7047000080B582B0DE
:100EC40000AF78607B68013BB3F1807F01D30123DD
:100ED4000FE00A4A7B68013B53600F214FF0FF305B
:100EE400FFF78EFF054B00229A60044B07221A601D
:100EF400002318460837BD4680BD00BF10E000E05F
:100F040080B582B000AF78607868FFF729FF00BF32
:100F14000837BD4680BD80B586B000AF0346B960D2
:100F24007A60FB7300237B61FFF73EFF78617A6888
:100F3400B9687869FFF78EFF024697F90F301146BA
:100F44001846FFF75DFF00BF1837BD4680BD80B56A
:100F540082B000AF0346FB7197F907301846FFF7DC
:100F640031FF00BF0837BD4680BD80B582B000AFF9
:100F740078607868FFF7A2FF034618460837BD4635
:100F840080BD000080B489B000AF78603960002370
:100F94007B6100233B610023BB610023FB6159E1BA
:100FA4000122FB6902FA03F37B613B681B687A69DF
:100FB40013403B613A697B699A4240F048813B683F
:100FC4005B6803F00303012B05D03B685B6803F007
:100FD4000303022B30D17B689B68BB61FB695B0018
:100FE400032202FA03F3DB43BA691340BB613B6893
:100FF400DA68FB695B0002FA03F3BA691343BB6165
:101004007B68BA699A607B685B68BB610122FB6993
:1010140002FA03F3DB43BA691340BB613B685B68C4
:101024001B0903F00102FB6902FA03F3BA691343D3
:10103400BB617B68BA695A603B685B6803F0030371
:10104400032B17D07B68DB68BB61FB695B00032261
:1010540002FA03F3DB43BA691340BB613B689A6845
:10106400FB695B0002FA03F3BA691343BB617B6853
:10107400BA69DA603B685B6803F00303022B23D18F
:10108400FB69DA087B68083253F82230BB61FB69DC
:1010940003F007039B000F2202FA03F3DB43BA6950
:1010A4001340BB613B681A69FB6903F007039B00AB
:1010B40002FA03F3BA691343BB61FB69DA087B687C
:1010C4000832B96943F822107B681B68BB61FB696D
:1010D4005B00032202FA03F3DB43BA691340BB61EA
:1010E4003B685B6803F00302FB695B0002FA03F3ED
:1010F400BA691343BB617B68BA691A603B685B6871
:1011040003F44033002B00F0A2800023FB60574B14
:101114005B6C564A43F480435364544B5B6C03F456
:101124008043FB60FB68524AFB699B08023352F818
:101134002330BB61FB6903F003039B000F2202FA17
:1011440003F3DB43BA691340BB617B68494A9342AA
:1011540019D07B68484A934213D07B68474A93422C
:101164000DD07B68464A934207D07B68454A934238
:1011740001D1042308E0072306E0032304E002234B
:1011840002E0012300E00023FA6902F00302920066
:101194009340BA691343BB613549FB699B08023329
:1011A400BA6941F82320384B9B68BB613B69DB4338
:1011B400BA691340BB613B685B6803F48013002B7E
:1011C40003D0BA693B691343BB612F4ABB6993607F
:1011D4002D4BDB68BB613B69DB43BA691340BB61E0
:1011E4003B685B6803F40013002B03D0BA693B69C6
:1011F4001343BB61244ABB69D360234B5B68BB6167
:101204003B69DB43BA691340BB613B685B6803F429
:101214000033002B03D0BA693B691343BB611A4AFC
:10122400BB695360184B1B68BB613B69DB43BA69FC
:101234001340BB613B685B6803F48033002B03D02D
:10124400BA693B691343BB610F4ABB691360FB690D
:101254000133FB61FB690F2B7FF6A2AE00BF00BF19
:101264002437BD465DF8047B704700BF0038024058
:10127400003801400000024000040240000802401F
:10128400000C024000100240003C014080B485B0D4
:1012940000AF78600B467B807B681A697B881340BB
:1012A400002B02D00123FB7301E00023FB73FB7BC3
:1012B40018461437BD465DF8047B704780B483B08C
:1012C40000AF78600B467B8013467B707B78002BE5
:1012D40003D07A887B689A6103E07B881A047B6870
:1012E4009A6100BF0C37BD465DF8047B704700006F
:1012F40080B582B000AF0346FB80084B5A69FB8877
:101304001340002B06D0054AFB885361FB8818461E
:10131400FFF7F4F800BF0837BD4680BD003C01402C
:1013240080B586B000AF78607B68002B01D10123C3
:1013340067E27B681B6803F00103002B75D0884BC0
:101344009B6803F00C03042B0CD0854B9B6803F0C3
:101354000C03082B12D1824B5B6803F48003B3F5B2
:10136400800F0BD17E4B1B6803F40033002B5BD042
:101374007B685B68002B57D1012342E27B685B6882
:10138400B3F5803F06D1764B1B68754A43F480332E
:1013940013601DE07B685B68B3F5A02F0CD1704B24
:1013A4001B686F4A43F4802313606D4B1B686C4ABF
:1013B40043F4803313600BE0694B1B68684A23F4E1
:1013C40080331360664B1B68654A23F480231360E3
:1013D4007B685B68002B13D0FFF7B6FC386108E02C
:1013E400FFF7B2FC02463B69D31A642B01D90323ED
:1013F40007E25B4B1B6803F40033002BF0D014E0CE
:10140400FFF7A2FC386108E0FFF79EFC02463B6947
:10141400D31A642B01D90323F3E1514B1B6803F462
:101424000033002BF0D100E000BF7B681B6803F0A1
:101434000203002B63D04A4B9B6803F00C03002B80
:101444000BD0474B9B6803F00C03082B1CD1444B77
:101454005B6803F48003002B16D1414B1B6803F037
:101464000203002B05D07B68DB68012B01D001232C
:10147400C7E13B4B1B6823F0F8027B681B69DB0068
:10148400374913430B603AE07B68DB68002B20D0BC
:10149400344B01221A60FFF757FC386108E0FFF76C
:1014A40053FC02463B69D31A022B01D90323A8E15A
:1014B4002B4B1B6803F00203002BF0D0284B1B6856
:1014C40023F0F8027B681B69DB00254913430B609A
:1014D40015E0244B00221A60FFF736FC386108E05F
:1014E400FFF732FC02463B69D31A022B01D90323CE
:1014F40087E11B4B1B6803F00203002BF0D17B68D0
:101504001B6803F00803002B36D07B685B69002B53
:1015140016D0154B01221A60FFF716FC386108E05B
:10152400FFF712FC02463B69D31A022B01D90323AD
:1015340067E10B4B5B6F03F00203002BF0D01BE061
:10154400094B00221A60FFF7FFFB38610EE0FFF73A
:10155400FBFB02463B69D31A022B07D9032350E154
:101564000038024000004742800E4742884B5B6FC0
:1015740003F00203002BEAD17B681B6803F0040329
:10158400002B00F097800023FB75814B1B6C03F04C
:101594008053002B0FD10023BB607D4B1B6C7C4A16
:1015A40043F0805313647A4B1B6C03F08053BB608D
:1015B400BB680123FB75774B1B6803F48073002B16
:1015C40018D1744B1B68734A43F480731360FFF79C
:1015D400BBFB386108E0FFF7B7FB02463B69D31A4F
:1015E400022B01D903230CE16A4B1B6803F48073BB
:1015F400002BF0D07B689B68012B06D1644B1B6FDA
:10160400634A43F0010313671CE07B689B68052B66
:101614000CD15F4B1B6F5E4A43F0040313675C4BB2
:101624001B6F5B4A43F0010313670BE0584B1B6FBE
:10163400574A23F001031367554B1B6F544A23F099
:10164400040313677B689B68002B15D0FFF77CFBB2
:1016540038610AE0FFF778FB02463B69D31A41F28E
:101664008832934201D90323CBE0494B1B6F03F02B
:101674000203002BEED014E0FFF766FB38610AE0AA
:10168400FFF762FB02463B69D31A41F28832934268
:1016940001D90323B5E03E4B1B6F03F00203002B7B
:1016A400EED1FB7D012B05D1394B1B6C384A23F05D
:1016B400805313647B689B69002B00F0A180344B3A
:1016C4009B6803F00C03082B5CD07B689B69022B9E
:1016D40041D1314B00221A60FFF736FB386108E034
:1016E400FFF732FB02463B69D31A022B01D90323CD
:1016F40087E0274B1B6803F00073002BF0D17B6855
:10170400DA697B681B6A1A437B685B6A9B011A432C
:101714007B689B6A5B08013B1B041A437B68DB6A9A
:101724001B061B4913434B601B4B01221A60FFF736
:101734000BFB386108E0FFF707FB02463B69D31A4D
:10174400022B01D903235CE0114B1B6803F00073E7
:10175400002BF0D054E0104B00221A60FFF7F4FA8B
:10176400386108E0FFF7F0FA02463B69D31A022B0E
:1017740001D9032345E0064B1B6803F00073002BDB
:10178400F0D13DE07B689B69012B07D1012338E050
:101794000038024000700040600047421B4B5B6809
:1017A400FB607B689B69012B28D0FB6803F48002F3
:1017B4007B68DB699A4221D1FB6803F03F027B68B6
:1017C4001B6A9A421AD1FA6847F6C07313407A68C2
:1017D400526A9201934211D1FB6803F440327B6850
:1017E4009B6A5B08013B1B049A4207D1FB6803F028
:1017F40070627B68DB6A1B069A4201D0012300E019
:10180400002318461837BD4680BD00BF003802408B
:1018140080B584B000AF786039607B68002B01D15B
:101824000123CCE0684B1B6803F007033A689A4233
:101834000CD9654B3A68D2B21A70634B1B6803F03B
:1018440007033A689A4201D00123B8E07B681B6819
:1018540003F00203002B20D07B681B6803F0040311
:10186400002B05D0594B9B68584A43F4E0539360CE
:101874007B681B6803F00803002B05D0534B9B685F
:10188400524A43F460439360504B9B6823F0F00248
:101894007B689B684D4913438B607B681B6803F02E
:1018A4000103002B44D07B685B68012B07D1474BB5
:1018B4001B6803F40033002B19D101237FE07B68FC
:1018C4005B68022B03D07B685B68032B07D13F4B1B
:1018D4001B6803F00073002B09D101236FE03B4B1D
:1018E4001B6803F00203002B01D1012367E0374B8F
:1018F4009B6823F003027B685B68344913438B6065
:10190400FFF722FAF8600AE0FFF71EFA0246FB68C6
:10191400D31A41F28832934201D903234FE02B4B6F
:101924009B6803F00C027B685B689B009A42EBD1D6
:10193400254B1B6803F007033A689A420CD2224BEA
:101944003A68D2B21A70204B1B6803F007033A6856
:101954009A4201D0012332E07B681B6803F0040340
:10196400002B08D0194B9B6823F4E0527B68DB689A
:10197400164913438B607B681B6803F00803002B34
:1019840009D0124B9B6823F460427B681B69DB001F
:101994000E4913438B6000F021F802460B4B9B6801
:1019A4001B0903F00F030A49CB5C22FA03F3094A2B
:1019B4001360094B1B681846FFF782F90023184689
:1019C4001037BD4680BD00BF003C024000380240D5
:1019D4003C2E000800000020040000202DE9B04F38
:1019E40090B000AF00237B630023FB6300233B63C1
:1019F4000023BB63594B9B6803F00C03082B0DD0E9
:101A0400082B00F2A180002B02D0042B03D09BE012
:101A1400534BBB639BE0534BBB6398E04F4B5B68FA
:101A240003F03F037B634D4B5B6803F48003002B9F
:101A340028D04A4B5B689B0900223B627A623B6A6E
:101A4400C3F308000021474B03FB01F2002300FB12
:101A540003F31344434AA0FB0212FA620A46BA6231
:101A6400FA6A1344FB627B6B0022BB61FA61D7E91B
:101A74000623D7E90A01FEF7ABFB02460B461346E1
:101A8400FB6353E0354B5B689B0900223B617A6141
:101A94003B69C3F3080A4FF0000B52465B464FF014
:101AA40000004FF00001590141EAD26150010246A1
:101AB4000B46B2EB0A0863EB0B094FF000024FF040
:101AC40000034FEA891343EA98634FEA8812B2EBA2
:101AD400080463EB09054FF000024FF00003EB002C
:101AE40043EA5473E20014461D4614EB0A033B60B8
:101AF40045EB0B037B604FF000024FF00003D7E986
:101B0400004529468B02214643EA915321468A0225
:101B1400104619467B6B0022BB60FA60D7E90223AA
:101B2400FEF756FB02460B461346FB630B4B5B6802
:101B34001B0C03F0030301335B003B63FA6B3B6B49
:101B4400B2FBF3F3BB6302E0054BBB6300BFBB6BAB
:101B540018464037BD46BDE8B08F00BF003802408C
:101B64000024F40040787D0180B400AF034B1B686F
:101B74001846BD465DF8047B704700BF0000002096
:101B840080B500AFFFF7F0FF0246054B9B689B0A48
:101B940003F007030349CB5C22FA03F3184680BD24
:101BA400003802404C2E000880B500AFFFF7DCFF80
:101BB4000246054B9B685B0B03F007030349CB5CB0
:101BC40022FA03F3184680BD003802404C2E000868
:101BD40080B582B000AF78607B68002B01D101230F
:101BE4007BE07B685B6A002B08D17B685B68B3F59C
:101BF400827F09D07B680022DA6105E07B680022DD
:101C04001A617B6800225A617B6800229A627B68B1
:101C140093F85130DBB2002B06D17B68002283F8A5
:101C240050207868FEF7D2FE7B68022283F85120A8
:101C34007B681B681A687B681B6822F040021A6084
:101C44007B685B6803F482727B689B6803F40443DB
:101C54001A437B68DB6803F400631A437B681B69DF
:101C640003F002031A437B685B6903F001031A4320
:101C74007B689B6903F400731A437B68DB6903F098
:101C840038031A437B681B6A03F0800342EA0301AA
:101C94007B689B6A03F400527B681B680A431A60E2
:101CA4007B689B691B0C03F004017B685B6A03F08F
:101CB40010027B681B680A435A607B681B68DA69F8
:101CC4007B681B6822F40062DA617B6800225A6533
:101CD4007B68012283F85120002318460837BD464B
:101CE40080BD80B582B000AF78607B68002B01D1E5
:101CF400012341E07B6893F83D30DBB2002B06D131
:101D04007B68002283F83C207868FEF7A7FE7B6896
:101D1400022283F83D207B681A687B6804331946E5
:101D2400104600F09DFA7B68012283F846207B6808
:101D3400012283F83E207B68012283F83F207B68E0
:101D4400012283F840207B68012283F841207B68CC
:101D5400012283F842207B68012283F843207B68B8
:101D6400012283F844207B68012283F845207B68A4
:101D7400012283F83D20002318460837BD4680BD64
:101D840080B485B000AF78607B6893F83D30DBB2F7
:101D9400012B01D0012344E07B68022283F83D201B
:101DA4007B681B68DA687B681B6842F00102DA60B2
:101DB4007B681B681E4A934218D07B681B68B3F18A
:101DC400804F13D07B681B681A4A93420ED07B68FD
:101DD4001B68194A934209D07B681B68174A9342CF
:101DE40004D07B681B68164A934211D17B681B6838
:101DF4009B6803F00703FB60FB68062B10D07B682D
:101E04001B681A687B681B6842F001021A6007E0CD
:101E14007B681B681A687B681B6842F001021A60C1
:101E2400002318461437BD465DF8047B704700BF95
:101E3400000001400004004000080040000C004085
:101E44000040014080B483B000AF78607B681B68B9
:101E5400DA687B681B6822F00102DA607B681B6821
:101E64001A6A41F211131340002B0FD17B681B68CF
:101E74001A6A40F244431340002B07D17B681B6865
:101E84001A687B681B6822F001021A607B680122D1
:101E940083F83D20002318460C37BD465DF8047BCB
:101EA400704780B584B000AF78607B681B68DB68DE
:101EB400FB607B681B681B69BB60BB6803F00203A3
:101EC400002B20D0FB6803F00203002B1BD07B689F
:101ED4001B686FF002021A617B6801221A777B6823
:101EE4001B689B6903F00303002B03D0786800F0A0
:101EF40099F905E0786800F08BF9786800F09CF9AE
:101F04007B6800221A77BB6803F00403002B20D0FF
:101F1400FB6803F00403002B1BD07B681B686FF085
:101F240004021A617B6802221A777B681B689B692A
:101F340003F44073002B03D0786800F073F905E0D4
:101F4400786800F065F9786800F076F97B6800221B
:101F54001A77BB6803F00803002B20D0FB6803F05A
:101F64000803002B1BD07B681B686FF008021A6102
:101F74007B6804221A777B681B68DB6903F0030320
:101F8400002B03D0786800F04DF905E0786800F084
:101F94003FF9786800F050F97B6800221A77BB6833
:101FA40003F01003002B20D0FB6803F01003002B78
:101FB4001BD07B681B686FF010021A617B680822D3
:101FC4001A777B681B68DB6903F44073002B03D02A
:101FD400786800F027F905E0786800F019F9786866
:101FE40000F02AF97B6800221A77BB6803F001032A
:101FF400002B0CD0FB6803F00103002B07D07B6897
:102004001B686FF001021A617868FEF799FABB68E1
:1020140003F08003002B0CD0FB6803F08003002B3B
:1020240007D07B681B686FF080021A61786800F043
:10203400B5FABB6803F04003002B0CD0FB6803F037
:102044004003002B07D07B681B686FF040021A61C5
:10205400786800F0FBF8BB6803F02003002B0CD079
:10206400FB6803F02003002B07D07B681B686FF02C
:1020740020021A61786800F087FA00BF1037BD4665
:1020840080BD80B584B000AF786039600023FB73F5
:102094007B6893F83C30012B01D10223B4E07B68C8
:1020A400012283F83C207B68022283F83D207B6870
:1020B4001B689B68BB60BB6823F07703BB60BB688D
:1020C40023F47F43BB607B681B68BA689A603B68F3
:1020D4001B68B3F5005F3ED0B3F5005F00F2878064
:1020E400B3F5805F00F08680B3F5805F7FD8702BF6
:1020F4001AD0702B7BD8602B50D0602B77D8502B04
:102104003CD0502B73D8402B58D0402B6FD8302B59
:1021140064D0302B6BD8202B60D0202B67D8002BB9
:102124005CD0102B5AD062E07B6818683B689968D1
:102134003B685A683B68DB6800F098F97B681B6869
:102144009B68BB60BB6843F07703BB607B681B681C
:10215400BA689A604FE07B6818683B6899683B6886
:102164005A683B68DB6800F081F97B681B689A68F1
:102174007B681B6842F480429A603CE07B68186884
:102184003B6859683B68DB681A4600F0F5F87B68E1
:102194001B685021184600F04EF92CE07B68186843
:1021A4003B6859683B68DB681A4600F014F97B68A1
:1021B4001B686021184600F03EF91CE07B68186833
:1021C4003B6859683B68DB681A4600F0D5F87B68C1
:1021D4001B684021184600F02EF90CE07B681A6851
:1021E4003B681B681946104600F025F903E00123FB
:1021F400FB7300E000BF7B68012283F83D207B680D
:10220400002283F83C20FB7B18461037BD4680BD76
:1022140080B483B000AF786000BF0C37BD465DF872
:10222400047B704780B483B000AF786000BF0C3784
:10223400BD465DF8047B704780B483B000AF78601E
:1022440000BF0C37BD465DF8047B704780B483B093
:1022540000AF786000BF0C37BD465DF8047B704763
:1022640080B485B000AF786039607B681B68FB6020
:102274007B683A4A93420FD07B68B3F1804F0BD00E
:102284007B68374A934207D07B68364A934203D02F
:102294007B68354A934208D1FB6823F07003FB60E6
:1022A4003B685B68FA681343FB607B682B4A934284
:1022B4001BD07B68B3F1804F17D07B68284A9342C8
:1022C40013D07B68274A93420FD07B68264A9342F7
:1022D4000BD07B68254A934207D07B68244A9342FB
:1022E40003D07B68234A934208D1FB6823F44073EC
:1022F400FB603B68DB68FA681343FB60FB6823F010
:1023040080023B685B691343FB607B68FA681A6070
:102314003B689A687B68DA623B681A687B689A62F1
:102324007B680E4A934203D13B681A697B681A633F
:102334007B6801225A617B681B6903F00103012B4E
:1023440005D17B681B6923F001027B681A6100BF19
:102354001437BD465DF8047B704700BF00000140A0
:102364000004004000080040000C00400040014010
:10237400004401400048014080B487B000AFF860D9
:10238400B9607A60FB681B6A7B61FB681B6A23F097
:102394000102FB681A62FB689B693B613B6923F09D
:1023A400F0033B617B681B013A6913433B617B6922
:1023B40023F00A037B617A69BB6813437B61FB6882
:1023C4003A699A61FB687A691A6200BF1C37BD4694
:1023D4005DF8047B704780B487B000AFF860B960E3
:1023E4007A60FB681B6A7B61FB681B6A23F010023E
:1023F400FB681A62FB689B693B613B6923F4704389
:102404003B617B681B033A6913433B617B6923F09F
:10241400A0037B61BB681B017A6913437B61FB6882
:102424003A699A61FB687A691A6200BF1C37BD4633
:102434005DF8047B704780B485B000AF7860396084
:102444007B689B68FB60FB6823F07003FB603A6861
:10245400FB68134343F00703FB607B68FA689A60E8
:1024640000BF1437BD465DF8047B704780B487B065
:1024740000AFF860B9607A603B60FB689B687B6181
:102484007B6923F47F437B613B681A027B681A43B0
:10249400BB6813437A6913437B61FB687A699A606A
:1024A40000BF1C37BD465DF8047B704780B485B01F
:1024B40000AF786039607B6893F83C30012B01D120
:1024C400022350E07B68012283F83C207B680222CF
:1024D40083F83D207B681B685B68FB607B681B6836
:1024E4009B68BB60FB6823F07003FB603B681B6860
:1024F400FA681343FB607B681B68FA685A607B6860
:102504001B681C4A934218D07B681B68B3F1804F48
:1025140013D07B681B68184A93420ED07B681B68F3
:10252400164A934209D07B681B68154A934204D02B
:102534007B681B68134A93420CD1BB6823F0800369
:10254400BB603B685B68BA681343BB607B681B680D
:10255400BA689A607B68012283F83D207B68002278
:1025640083F83C20002318461437BD465DF8047BED
:10257400704700BF00000140000400400008004014
:10258400000C00400040014080B483B000AF78608C
:1025940000BF0C37BD465DF8047B704780B483B040
:1025A40000AF786000BF0C37BD465DF8047B704710
:1025B40080B582B000AF78607B68002B01D1012325
:1025C40042E07B6893F84130DBB2002B06D17B6894
:1025D400002283F840207868FEF768FA7B6824229A
:1025E40083F841207B681B68DA687B681B6822F4E7
:1025F4000052DA60786800F073F97B681B681A6926
:102604007B681B6822F490421A617B681B685A69D4
:102614007B681B6822F02A025A617B681B68DA68AF
:102624007B681B6842F40052DA607B6800225A64BB
:102634007B68202283F841207B68202283F8422093
:102644007B6800225A63002318460837BD4680BDC4
:1026540080B58AB002AFF860B9603B601346FB8076
:1026640000237B61FB6893F84130DBB2202B75D1EA
:10267400BB68002B02D0FB88002B01D101236EE044
:10268400FB6800225A64FB68212283F84120FEF78C
:102694005BFB7861FB68FA889A84FB68FA88DA84C1
:1026A400FB689B68B3F5805F08D1FB681B69002B4E
:1026B40004D10023FB61BB68BB6103E0BB68FB6121
:1026C4000023BB612EE03B6800937B6900228021DC
:1026D400F86800F048F80346002B05D0FB68202278
:1026E40083F8412003233AE0FB69002B0BD1BB693B
:1026F4001B881A46FB681B68C2F308025A60BB6950
:102704000233BB6107E0FB691A78FB681B685A60F7
:10271400FB690133FB61FB68DB8C9BB2013B9AB222
:10272400FB68DA84FB68DB8C9BB2002BCBD13B6863
:1027340000937B6900224021F86800F014F80346F6
:10274400002B05D0FB68202283F84120032306E0F8
:10275400FB68202283F84120002300E0022318466E
:102764002037BD4680BD80B586B000AFF860B96043
:102774003B601346FB713BE03B6AB3F1FF3F37D04C
:10278400FEF7E2FA02463B68D31A3A6A9A4202D347
:102794003B6A002B01D103233AE0FB681B68DB682A
:1027A40003F00403002B23D0BB68802B20D0BB682C
:1027B400402B1DD0FB681B681B6803F00803082B23
:1027C40016D100237B61FB681B681B687B61FB6877
:1027D4001B685B687B617B69F86800F01DF8FB6827
:1027E40008225A64FB68002283F8402001230FE08A
:1027F400FB681B681A68BB681340BA689A420CBF2E
:1028040001230023DBB21A46FB799A42B4D0002399
:1028140018461837BD4680BD80B495B000AF7860C7
:102824007B681B680C337B637B6B53E8003F3B6323
:102834003B6B23F49073FB647B681B680C33FA6C6A
:102844003A64FB63F96B3A6C41E80023BB63BB6BEE
:10285400002BE5D17B681B6814333B623B6A53E869
:10286400003FFB61FB6923F00103BB647B681B68C9
:102874001433BA6CFA62BB62B96AFA6A41E800239B
:102884007B627B6A002BE5D17B681B6B012B19D122
:102894007B681B680C33FB60FB6853E8003FBB603C
:1028A400BB6823F010037B647B681B680C337A6C71
:1028B400BA617B617969BA6941E800233B613B698C
:1028C400002BE5D17B68202283F842207B6800221C
:1028D4001A6300BF5437BD465DF8047B704700009F
:1028E4002DE9B04FC0B000AFC7F8F400D7F8F4300A
:1028F4001B681B6923F44050D7F8F430D968D7F823
:10290400F4301A6840EA01031361D7F8F4309A6886
:10291400D7F8F4301B691A43D7F8F4305B691A43CB
:10292400D7F8F430DB691343C7F8F830D7F8F4303C
:102934001B68DB6823F4164121F00C01D7F8F4304E
:102944001A68D7F8F8300B43D360D7F8F4301B6813
:102954005B6923F44070D7F8F4309969D7F8F43000
:102964001A6840EA01035361D7F8F4301A688F4BB0
:102974009A4205D0D7F8F4301A688D4B9A4204D1A4
:10298400FFF712F9C7F8FC0003E0FFF7F9F8C7F8FE
:10299400FC00D7F8F430DB69B3F5004F40F00C814C
:1029A400D7F8FC300022C7F8E830C7F8EC20D7E9A4
:1029B4003A4522462B469118B9655B41FB65D7E938
:1029C4001623214612EB0108294643EB01094FF077
:1029D40000024FF000034FEAC90343EA58734FEA79
:1029E400C80290469946234618EB0303C7F8E03023
:1029F4002B4649EB0303C7F8E430D7F8F4305B689F
:102A04000022C7F8D830C7F8DC20D7E936120B46C5
:102A1400DB183B65134642EB03037B65D7E91423BC
:102A2400D7E93801FDF7D4FB02460B46614BA3FB03
:102A340002235B091C01D7F8FC300022C7F8D03010
:102A4400C7F8D420D7E9348942464B469118B96473
:102A54005B41FB64D7E91223414612EB010A494664
:102A640043EB010B4FF000024FF000034FEACB039E
:102A740043EA5A734FEACA0292469B4643461AEB0C
:102A84000303C7F8C8304B464BEB0303C7F8CC30FD
:102A9400D7F8F4305B680022C7F8C030C7F8C42008
:102AA400D7E930120B46DB183B64134642EB0303B1
:102AB4007B64D7E91023D7E93201FDF789FB02468D
:102AC4000B4611463B4BA3FB01235B09642202FB2B
:102AD40003F3CB1ADB0003F13202364BA3FB0223D0
:102AE4005B095B0003F4F8731C44D7F8FC30002244
:102AF400C7F8B830C7F8BC20D7E92E8942464B4600
:102B04009118B9635B41FB63D7E90E234146511821
:102B1400396349464B417B634FF000024FF0000399
:102B2400D7E90CAB5946CB00514643EA51735146A1
:102B3400CA0010461946034642469B18C7F8B030EF
:102B44004B460A4642EB0303C7F8B430D7F8F430D7
:102B54005B680022C7F8A830C7F8AC20D7E92A126E
:102B64000B46DB18BB62134642EB0303FB62D7E957
:102B74000A23D7E92C01FDF72BFB02460B460D4B2C
:102B8400A3FB02135B09642101FB03F3D31ADB00EB
:102B94003233084AA2FB03235B0903F00702D7F888
:102BA400F4301B6822449A6006E100BF0010014023
:102BB400001401401F85EB51D7F8FC300022C7F800
:102BC400A030C7F8A420D7E9288942464B4691187B
:102BD40039625B417B62D7E9082341465418494670
:102BE40043EB01054FF000024FF00003EB0043EA12
:102BF4005473E20014461D464346E318C7F8983060
:102C04004B4645EB0303C7F89C30D7F8F4305B68B8
:102C14000022C7F89030C7F894204FF000024FF01C
:102C24000003D7E9244529468B00214643EA9173E2
:102C340021468A00D7E92601FDF7CAFA02460B4667
:102C4400604BA3FB02235B091C01D7F8FC30002274
:102C5400C7F88830C7F88C20D7E9228942464B460A
:102C64009118B9615B41FB61D7E9062341465118CC
:102C7400396149464B417B614FF000024FF000033C
:102C8400D7E904AB5946CB00514643EA5173514648
:102C9400CA0010461946034642469B18C7F88030BE
:102CA4004B460A4642EB0303C7F88430D7F8F430A6
:102CB4005B680022BB67FA674FF000024FF0000325
:102CC400D7E91E8949468B00414643EA9173414640
:102CD4008A00D7E92001FDF77BFA02460B4611462C
:102CE400384BA3FB01235B09642202FB03F3CB1AD9
:102CF4001B013233334AA2FB03235B0903F0F003C5
:102D04001C44D7F8FC3000223B677A67D7E91C895A
:102D140042464B469118B9605B41FB60D7E90223F8
:102D240041465118396049464B417B604FF00002DF
:102D34004FF00003D7E900AB5946CB00514643EAB4
:102D440051735146CA0010461946034642469B1821
:102D5400BB664B460A4642EB0303FB66D7F8F430E6
:102D64005B6800223B667A664FF000024FF0000376
:102D7400D7E9188949468B00414643EA9173414695
:102D84008A00D7E91A01FDF723FA02460B460D4BD8
:102D9400A3FB02135B09642101FB03F3D31A1B0198
:102DA4003233084AA2FB03235B0903F00F02D7F86E
:102DB400F4301B6822449A6000BF07F58077BD4653
:102DC400BDE8B08F1F85EB5102440346934200D106
:102DD400704703F8011BF9E770B50D4D0D4C641BEA
:102DE400A4100026A64209D10B4D0C4C00F018F893
:102DF400641BA4100026A64205D170BD55F8043BFF
:102E040098470136EEE755F8043B98470136F2E758
:102E14005C2E00085C2E00085C2E0008602E000862
:102E2400F8B500BFF8BC08BC9E467047F8B500BFB3
:082E3400F8BC08BC9E46704783
:102E3C00000000000000000001020304060708095E
:082E4C00000000000102030474
:082E5400B0D3FF7F0100000074
:042E5C00B9010008B0
:042E600095010008D0
:0C2E64000024F400100000000100000039
:0400000508000C2DB6
:00000001FF
