:020000040800F2
:1000000000800120091000081D0F0008250F0008BE
:100010002D0F0008350F00083D0F000800000000FC
:10002000000000000000000000000000450F000874
:10003000530F000800000000610F00086F0F000858
:1000400059100008591000085910000859100008EC
:1000500059100008591000087B0F0008890F00088C
:10006000970F0008A50F0008B30F000859100008EB
:1000700059100008591000085910000859100008BC
:10008000591000085910000859100008000000001D
:10009000000000000000000000000000C10F000888
:1000A000591000085910000859100008591000088C
:1000B00059100008D10F0008591000085910000805
:1000C000591000085910000859100008591000086C
:1000D00059100008591000085910000800000000CD
:1000E00059100008591000085910000800000000BD
:1000F000000000000000000000000000591000088F
:10010000000000005910000859100008591000089C
:1001100000000000000000000000000000000000DF
:10012000591000085910000859100008591000080B
:10013000591000080000000000000000000000004E
:10014000000000000000000000000000591000083E
:1001500059100008591000085910000859100008DB
:1001600059100008591000080000000000000000AD
:10017000000000000000000000000000000000007F
:1001800000000000591000080000000000000000FE
:0401900059100008FA
:1001940010B5054C237833B9044B13B10448AFF3BD
:1001A40000800123237010BD8400002000000000A3
:1001B400D039000808B5034B1BB103490348AFF31A
:1001C400008008BD0000000088000020D03900082D
:1001D40053B94AB9002908BF00281CBF4FF0FF31AA
:1001E4004FF0FF3000F088B9ADF1080C6DE904CE92
:1001F40000F006F8DDF804E0DDE9022304B07047FE
:100204002DE9F047089D8E4604468846002B4AD1C6
:100214008A42174662D9B2FA82F64EB1C6F1200379
:1002240001FA06F820FA03F3B74043EA0808B44099
:100234004FEA174E1FFA87FCB8FBFEF1230C0EFBA6
:10024400118843EA084301FB0CF29A4209D9FB18CE
:1002540001F1FF3080F0EA809A4240F2E7800239EF
:100264003B449A1AA3B2B2FBFEF00EFB102243EAFF
:10027400024300FB0CFC9C4509D9FB1800F1FF323A
:1002840080F0D6809C4540F2D3803B44023840EA5B
:100294000140A3EB0C0300211DB1F3400022C5E98A
:1002A4000032BDE8F0878B4205D90DB1C5E90001E4
:1002B40000210846F5E7B3FA83F1002946D17345D6
:1002C40002D3824200F20581841A6EEB03020120FC
:1002D4009046002DE5D0C5E90048E2E7002A00F089
:1002E4009080B2FA82F6002E40F0A4808A1A030CA1
:1002F4004FEA174E80B2BCB20121B2FBFEFC0EFBEA
:100304001C2243EA024304FB0CF29A4207D9FB186D
:100314000CF1FF3802D29A4200F2E080C4469B1AE4
:10032400B3FBFEF20EFB123340EA034302FB04F478
:100334009C4207D9FB1802F1FF3002D29C4200F222
:10034400CA8002461B1B42EA0C40A5E7C1F1200605
:100354008B4022FA06F71F430EFA01F420FA06F343
:100364002EFA06FE4FEA1749234300FA01F81FFA52
:1003740087FCBEFBF9F01C0C09FB10EE44EA0E44AA
:1003840000FB0CFEA64502FA01F209D93C1900F162
:10039400FF3A80F09C80A64540F2998002383C44A4
:1003A400A4EB0E041FFA83FEB4FBF9F309FB134418
:1003B4004EEA044403FB0CFCA44508D93C1903F1A0
:1003C400FF3E80F08280A4457FD9023B3C4443EA4F
:1003D4000040A4EB0C04A0FB02EC64457346E14628
:1003E40062D35FD05DB1B8EB030264EB090404FA95
:1003F40006F622FA01F31E43CC40C5E9006400214D
:100404004FE7B1FBF2FC010C41EA0E4180B240EA35
:1004140001423B4638463C46B846BE462026B1FB20
:10042400F7F1A2EB080241EA0C4166E7014618E73E
:1004340010462CE7C6F120022EFA02F3B740B14071
:1004440020FA02F24FEA174E0A43B3FBFEF8BCB29D
:100454000EFB1833110C41EA034108FB04F9B040C8
:1004640089454FEA104380B23ED9791808F1FF3C20
:1004740001D289451FD8A1EB0901B1FBFEF909FBA3
:1004840004F80EFB191192B242EA0142424529D204
:10049400BA1809F1FF31C4D24245C2D2A9F102010E
:1004A4003A44BEE7F0459DD2BEEB02036CEB070C69
:1004B4000138E14696E7A7EB09094944A8F1020C83
:1004C400B1FBFEF909FB04F8DBE773467FE750460E
:1004D40066E70846FDE63B44023A33E7ACF1020C1A
:1004E4003B441CE749469CE7A1EB0901C446B1FB28
:1004F400FEF909FB04F8C4E7704700BF80B483B079
:1005040000AF0023FB7106E0FB79084A0021D154B7
:10051400FB790133FB71FB79052BF5D900BF00BFD3
:100524000C37BD465DF8047B704700BFA400002073
:1005340080B483B000AF0023FB710CE0FA79FB793F
:100544000A49895C0A4AD154FB79084A0021D154EA
:10055400FB790133FB71FB79052BEFD900BF00BF99
:100564000C37BD465DF8047B704700BFAC0000202B
:10057400A400002080B582B000AF0346FB800B4B83
:100584001B78012B0DD0094B01221A70084AFB88F5
:100594001380084B1B6800225A62064802F0C6F911
:1005A40000E000BF0837BD4680BD00BFA2000020A8
:1005B400A00000206401002080B584B000AF786002
:1005C400786802F015FA2E4B1B88BB812C4B002255
:1005D4001A802C4B00221A70BB89102B02D0BB89C5
:1005E400202B07D1BB891946274801F003FA03469B
:1005F400FB7306E0BB891946244801F0FBF9034666
:10060400FB73FB7B002B36D10623BB73BB89012B09
:1006140002D10023BB731CE0BB89022B02D101234E
:10062400BB7316E0BB89042B02D10223BB7310E019
:10063400BB89082B02D10323BB730AE0BB89102BAF
:1006440002D10423BB7304E0BB89202B01D1052311
:10065400BB73BB7B062B0ED0BB7B0D4A0121D1544F
:10066400BB7B3033DBB2FB7207F10B016423012245
:10067400084802F0C3FD00BF1037BD4680BD00BF6F
:10068400A0000020A200002000040240000002405C
:10069400AC000020AC01002080B400AF034B012269
:1006A4001A7000BFBD465DF8047B7047B20000209D
:1006B40080B582B000AF00F025F80346FB710E4B05
:1006C4001B781846FA790D4903465B0003440B4432
:1006D40013441A78084B1A70074B1B781946084ABA
:1006E4000B465B000B449B00134404331B68984780
:1006F40000BF0837BD4680BDB200002000000020C6
:100704003C00002080B584B000AF0023FB730023BD
:10071400FB710023BB6025E0FB7B002B1FD1154B35
:100724001B781A46144913465B001344BA681344F1
:1007340051F82330002B12D00E4B1B781A460E4969
:1007440013465B001344BA68134451F823309847A6
:100754000346FB71FB79012B01D1BB68FB73BB68BA
:100764000133BB60BB68022BD6DDFB7B1846103718
:10077400BD4680BDB20000200C00002080B400AF54
:10078400074BDB78002B05D1064BDB78012B01D11D
:10079400012300E000231846BD465DF8047B704742
:1007A400A4000020AC00002080B400AF074B5B79AC
:1007B400002B05D1064B5B79012B01D1012300E00D
:1007C40000231846BD465DF8047B7047A400002052
:1007D400AC00002080B400AF00BFBD465DF8047BD0
:1007E400704780B400AF00231846BD465DF8047B13
:1007F400704780B400AF00BFBD465DF8047B70470E
:1008040080B500AF012000F045FD012000F05AFD45
:1008140000BF80BD80B400AF00BFBD465DF8047B5F
:10082400704780B400AF00BFBD465DF8047B7047DD
:1008340080B500AF012000F02DFD022000F042FD44
:1008440000BF80BD80B400AF00BFBD465DF8047B2F
:10085400704780B400AF00BFBD465DF8047B7047AD
:1008640080B500AF012000F015FD042000F02AFD42
:1008740000BF80BD80B400AF00BFBD465DF8047BFF
:100884007047000080B582B000AF00237B6009E0B0
:10089400104A7B6832F81330184600F0DDFB7B68A1
:1008A40001337B607B68052BF2DD00233B6009E0AC
:1008B400084A3B6832F81330184600F045FC3B68A0
:1008C40001333B603B68052BF2DD00BF00BF0837F6
:1008D400BD4680BD6C00002080B500AF00F05EFD19
:1008E40000F016F800F058F900F0DEF800F02AF9EC
:1008F40000F0A4F800F06CF8FFF7C4FFFFF7FEFD6A
:10090400FFF7CAFEFFF7D4FEFFF712FE00BFF9E7B8
:1009140080B594B000AF07F12003302200211846BF
:1009240003F028F807F10C0300221A605A609A6059
:10093400DA601A610023BB60234B1B6C224A43F02C
:1009440080531364204B1B6C03F08053BB60BB6863
:1009540000237B601D4B1B6823F440431B4A43F474
:1009640000431360194B1B6803F440437B607B68AE
:1009740002233B620123FB6210233B630023BB631E
:1009840007F12003184601F07FF80346002B01D03D
:1009940000F0A6F90F23FB6000233B6100237B6179
:1009A4000023BB610023FB6107F10C0300211846FF
:1009B40001F0E2FA0346002B01D000F091F900BFE8
:1009C4005037BD4680BD00BF003802400070004073
:1009D40080B500AF174B184A1A60164B4FF4827259
:1009E4005A60144B00229A60124B0022DA60114BB9
:1009F40000221A610F4B00225A610E4B4FF4007211
:100A04009A610C4B0822DA610A4B00221A62094BE4
:100A140000225A62074B00229A62064B0A22DA62CB
:100A2400044801F089FC0346002B01D000F058F97A
:100A340000BF80BDB40000200030014080B500AF8D
:100A4400174B184A1A60164B4FF482725A60144BB3
:100A540000229A60124B0022DA60114B00221A61C4
:100A64000F4B00225A610E4B4FF400729A610C4BEB
:100A74000822DA610A4B00221A62094B00225A62E8
:100A8400074B00229A62064B0A22DA62044801F0FC
:100A940053FC0346002B01D000F022F900BF80BDB7
:100AA4000C0100200038004080B586B000AF07F18B
:100AB400080300221A605A609A60DA603B460022FA
:100AC4001A605A601D4B1E4A1A601C4B43F67F6223
:100AD4005A601A4B00229A60184B3122DA60174B85
:100AE40000221A61154B00229A61144801F0CEFECF
:100AF4000346002B01D000F0F3F84FF48053BB60A1
:100B040007F1080319460D4802F091F80346002B3B
:100B140001D000F0E5F800233B6000237B603B46F6
:100B24001946064802F098FA0346002B01D000F05B
:100B3400D7F800BF1837BD4680BD00BF6401002050
:100B44000004004080B500AF114B124A1A60104BEC
:100B54004FF416525A600E4B00229A600C4B00223E
:100B6400DA600B4B00221A61094B0C225A61084BC4
:100B740000229A61064B0022DA61054802F0EEFA7F
:100B84000346002B01D000F0ABF800BF80BD00BFCE
:100B9400AC0100200010014080B588B000AF07F11F
:100BA4000C0300221A605A609A60DA601A6100230A
:100BB400BB60484B1B6B474A43F001031363454B2F
:100BC4001B6B03F00103BB60BB6800237B60414BDC
:100BD4001B6B404A43F0020313633E4B1B6B03F051
:100BE40002037B607B68002210213B4800F01AFF5F
:100BF400002240F2C771394800F014FF0F23FB6054
:100C04004FF404133B6101237B6107F10C03194684
:100C1400314800F06BFD1023FB6001233B6100238E
:100C24007B610023BB6107F10C0319462A4800F0DD
:100C34005DFD40F2C773FB6001233B6100237B61D0
:100C44000023BB6107F10C031946244800F04EFD54
:100C54003023FB604FF404133B6101237B6107F1F4
:100C64000C0319461D4800F041FD00220021062016
:100C740000F005FD062000F01EFD002200210720E3
:100C840000F0FDFC072000F016FD002200210820E2
:100C940000F0F5FC082000F00EFD002200210920E0
:100CA40000F0EDFC092000F006FD002200210A20DE
:100CB40000F0E5FC0A2000F0FEFC002200211720D1
:100CC40000F0DDFC172000F0F6FC00BF2037BD4625
:100CD40080BD00BF00380240000002400004024012
:100CE40080B400AF72B600BF00BFFDE780B483B02C
:100CF40000AF00237B60104B5B6C0F4A43F48043CE
:100D040053640D4B5B6C03F480437B607B6800236E
:100D14003B60094B1B6C084A43F080531364064B39
:100D24001B6C03F080533B603B6800BF0C37BD462F
:100D34005DF8047B704700BF0038024080B58CB07A
:100D440000AF786007F11C0300221A605A609A60B1
:100D5400DA601A617B681B68324A93422CD1002303
:100D6400BB61314B5B6C304A43F4805353642E4B6C
:100D74005B6C03F48053BB61BB6900237B612A4B2A
:100D84001B6B294A43F001031363274B1B6B03F0CE
:100D940001037B617B69E023FB6102233B62002347
:100DA4007B620323BB620523FB6207F11C03194624
:100DB4001E4800F09BFC31E07B681B681C4A934290
:100DC4002CD100233B61184B1B6C174A43F480431E
:100DD4001364154B1B6C03F480433B613B69002394
:100DE400FB60114B1B6B104A43F0020313630E4B61
:100DF4001B6B03F00203FB60FB684FF46043FB6171
:100E040002233B6200237B620323BB620523FB6254
:100E140007F11C031946074800F068FC00BF30378F
:100E2400BD4680BD00300140003802400000024051
:100E3400003800400004024080B584B000AF786000
:100E44007B681B680E4A934215D10023FB600D4B4F
:100E54001B6C0C4A43F0020313640A4B1B6C03F033
:100E64000203FB60FB68002200211D2000F007FC48
:100E74001D2000F020FC00BF1037BD4680BD00BF20
:100E8400000400400038024080B58AB000AF7860AA
:100E940007F1140300221A605A609A60DA601A613A
:100EA4007B681B68194A93422CD100233B61184B81
:100EB4005B6C174A43F010035364154B5B6C03F0EF
:100EC40010033B613B690023FB60114B1B6B104A11
:100ED40043F0010313630E4B1B6B03F00103FB6030
:100EE400FB684FF4C0637B610223BB610023FB6199
:100EF40003233B6207237B6207F114031946054869
:100F040000F0F4FB00BF2837BD4680BD001001404F
:100F1400003802400000024080B400AF00BFFDE78B
:100F240080B400AF00BFFDE780B400AF00BFFDE7B1
:100F340080B400AF00BFFDE780B400AF00BFFDE7A1
:100F440080B400AF00BFBD465DF8047B704780B439
:100F540000AF00BFBD465DF8047B704780B400AFAE
:100F640000BFBD465DF8047B704780B500AF00F05C
:100F740067FA00BF80BD80B500AF012000F06CFDB2
:100F840000BF80BD80B500AF022000F065FD00BF4A
:100F940080BD80B500AF042000F05EFD00BF80BDC1
:100FA40080B500AF082000F057FD00BF80BD80B5BC
:100FB40000AF102000F050FD00BF80BD80B500AF31
:100FC400202000F049FD00BF80BD000080B500AFC7
:100FD400024801F03CFD00BF80BD00BF6401002059
:100FE40080B400AF064BD3F88830054A43F470034D
:100FF400C2F8883000BFBD465DF8047B704700BF6F
:1010040000ED00E0DFF834D0FFF7EAFF0C480D49AB
:101014000D4A002302E0D458C4500433C4188C424F
:10102400F9D30A4A0A4C002301E013600432A242B5
:10103400FBD302F0A7FCFFF74FFC704700800120B0
:101044000000002084000020103A000884000020E2
:1010540000060020FEE7000080B582B000AF034622
:10106400FB80FB88012219460C4800F0DBFC0022BF
:101074004FF40071094800F0D5FC0A2000F000FA92
:1010840001224FF40071054800F0CCFC0A2000F066
:10109400F7F900BF0837BD4680BD00BF0004024019
:1010A40080B582B000AF03460A46FB711346BB808D
:1010B400BB88002219460D4800F0B4FC00224FF40E
:1010C40080610A4800F0AEFCF91D4FF0FF330122A5
:1010D400074801F0BAF9BB8801221946034800F019
:1010E400A1FC00BF0837BD4680BD00BF000402401C
:1010F4000C01002080B584B000AFF860B9601346DD
:10110400FB80FB88002219460D4800F08BFC01226D
:101114004FF480610A4800F085FCBB689AB24FF036
:10112400FF33F968074801F090F9FB88012219465A
:10113400034800F077FC00BF1037BD4680BD00BFF8
:10114400000402400C01002080B582B000AF0346C9
:10115400FB80642000F094F9FB881946002000F01D
:10116400FBF8FB8819462020FFF79AFFFB881946F5
:101174000020FFF795FFFB881946B020FFF790FF8A
:10118400FB881946C820FFF78BFFFB88194600200F
:10119400FFF786FFFB8819461020FFF781FFFB88C5
:1011A40019464020FFF77CFFFB881946FF2000F01A
:1011B400B9F8FB881946A120FFF772FFFB8819468E
:1011C400A620FFF76DFFFB881946A820FFF768FFEC
:1011D400FB8819463F20FFF763FFFB881946A420CC
:1011E400FFF75EFFFB881946D320FFF759FFFB8802
:1011F40019460020FFF754FFFB881946D520FFF756
:101204004FFFFB881946F020FFF74AFFFB88194679
:10121400D920FFF745FFFB8819462220FFF740FF3E
:10122400FB881946DA20FFF73BFFFB88194612209A
:10123400FFF736FFFB881946DB20FFF731FFFB88F9
:1012440019462020FFF72CFFFB8819468D20FFF755
:1012540027FFFB8819461420FFF722FFFB88194655
:10126400012000F079F8002000F014F8FB881846FB
:1012740000F028F8064B00221A80054B00225A8001
:10128400034B01221A7100BF0837BD4680BD00BF61
:10129400F405002080B582B000AF0346FB71FB79F2
:1012A400002B01D1002300E0FF234FF48062194694
:1012B400034802F05FFB00BF0837BD4680BD00BF96
:1012C400F401002080B584B000AF0346FB80002306
:1012D400FB731DE0FB7B503BDBB2FA8811461846DA
:1012E400FFF7DEFEFB8819460020FFF7D9FEFB88D6
:1012F40019461020FFF7D4FEFB7BDB01084A134498
:10130400FA8880211846FFF7F5FEFB7B0133FB7357
:10131400FB7B072BDED900BF00BF1037BD4680BD65
:10132400F401002080B584B000AF03460A46FB7187
:101334001346BB808123FB73BA88FB7B1146184696
:10134400FFF7AEFEBA88FB7911461846FFF7A8FEF0
:1013540000BF1037BD4680BD80B584B000AF0346E2
:101364000A46FB711346BB80FB79002B05D0AF23E3
:10137400FB73094B01225A7104E0AE23FB73064B45
:1013840000225A71BA88FB7B11461846FFF788FE83
:1013940000BF1037BD4680BDF405002080B500AF06
:1013A4000E4B1B680D4A43F4007313600B4B1B6810
:1013B4000A4A43F480631360084B1B68074A43F4EA
:1013C40080731360032000F04FF90F2000F008F839
:1013D400FFF78CFC0023184680BD00BF003C024090
:1013E40080B582B000AF7860124B1A68124B1B783C
:1013F40019464FF47A73B3FBF1F3B2FBF3F31846D7
:1014040000F067F90346002B01D001230EE07B684E
:101414000F2B0AD8002279684FF0FF3000F02FF923
:10142400064A7B681360002300E00123184608374E
:10143400BD4680BD78000020800000207C00002094
:1014440080B400AF064B1B781A46064B1B68134446
:10145400044A136000BFBD465DF8047B704700BFBB
:1014640080000020FC05002080B400AF034B1B6803
:101474001846BD465DF8047B704700BFFC0500209C
:1014840080B584B000AF7860FFF7EEFFB8607B688A
:10149400FB60FB68B3F1FF3F05D00A4B1B781A468B
:1014A400FB681344FB6000BFFFF7DEFF0246BB6826
:1014B400D31AFA689A42F7D800BF00BF1037BD4666
:1014C40080BD00BF8000002080B485B000AF78608C
:1014D4007B6803F00703FB600C4BDB68BB60BA68F6
:1014E4004FF6FF031340BB60FB681A02BB6813434B
:1014F40043F0BF6343F40033BB60044ABB68D3606A
:1015040000BF1437BD465DF8047B704700ED00E072
:1015140080B400AF044BDB681B0A03F007031846D2
:10152400BD465DF8047B704700ED00E080B483B0F5
:1015340000AF0346FB7197F90730002B0BDBFB79F7
:1015440003F01F02074997F907305B09012000FAED
:1015540002F241F8232000BF0C37BD465DF8047B3E
:10156400704700BF00E100E080B483B000AF0346E1
:101574003960FB7197F90730002B0ADB3B68DAB25C
:101584000C4997F907301201D2B20B4483F80023B7
:101594000AE03B68DAB20849FB7903F00F03043B25
:1015A4001201D2B20B441A7600BF0C37BD465DF867
:1015B400047B704700E100E000ED00E080B489B0F6
:1015C40000AFF860B9607A60FB6803F00703FB6161
:1015D400FB69C3F10703042B28BF0423BB61FB6928
:1015E4000433062B02D9FB69033B00E000237B6133
:1015F4004FF0FF32BB6902FA03F3DA43BB681A40C7
:101604007B699A404FF0FF317B6901FA03F3D943B8
:101614007B680B40134318462437BD465DF8047BB2
:101624007047000080B582B000AF78607B68013BF2
:10163400B3F1807F01D301230FE00A4A7B68013BA9
:1016440053600F214FF0FF30FFF78EFF054B002250
:101654009A60044B07221A60002318460837BD46D7
:1016640080BD00BF10E000E080B582B000AF7860BC
:101674007868FFF729FF00BF0837BD4680BD80B5F5
:1016840086B000AF0346B9607A60FB7300237B61C8
:10169400FFF73EFF78617A68B9687869FFF78EFFD3
:1016A400024697F90F3011461846FFF75DFF00BF59
:1016B4001837BD4680BD80B582B000AF0346FB71CC
:1016C40097F907301846FFF731FF00BF0837BD46CA
:1016D40080BD80B582B000AF78607868FFF7A2FF64
:1016E400034618460837BD4680BD000080B489B063
:1016F40000AF7860396000237B6100233B610023E5
:10170400BB610023FB6159E10122FB6902FA03F387
:101714007B613B681B687A6913403B613A697B696A
:101724009A4240F048813B685B6803F00303012B55
:1017340005D03B685B6803F00303022B30D17B6860
:101744009B68BB61FB695B00032202FA03F3DB4382
:10175400BA691340BB613B68DA68FB695B0002FA53
:1017640003F3BA691343BB617B68BA699A607B6807
:101774005B68BB610122FB6902FA03F3DB43BA69CC
:101784001340BB613B685B681B0903F00102FB6902
:1017940002FA03F3BA691343BB617B68BA695A60FE
:1017A4003B685B6803F00303032B17D07B68DB689B
:1017B400BB61FB695B00032202FA03F3DB43BA69F2
:1017C4001340BB613B689A68FB695B0002FA03F350
:1017D400BA691343BB617B68BA69DA603B685B68CA
:1017E40003F00303022B23D1FB69DA087B68083278
:1017F40053F82230BB61FB6903F007039B000F22FF
:1018040002FA03F3DB43BA691340BB613B681A690C
:10181400FB6903F007039B0002FA03F3BA6913435D
:10182400BB61FB69DA087B680832B96943F82210A6
:101834007B681B68BB61FB695B00032202FA03F34C
:10184400DB43BA691340BB613B685B6803F0030286
:10185400FB695B0002FA03F3BA691343BB617B685B
:10186400BA691A603B685B6803F44033002B00F0EC
:10187400A2800023FB60574B5B6C564A43F48043C1
:101884005364544B5B6C03F48043FB60FB68524A23
:10189400FB699B08023352F82330BB61FB6903F0F8
:1018A40003039B000F2202FA03F3DB43BA691340DC
:1018B400BB617B68494A934219D07B68484A93428A
:1018C40013D07B68474A93420DD07B68464A9342C3
:1018D40007D07B68454A934201D1042308E00723DB
:1018E40006E0032304E0022302E0012300E00023D6
:1018F400FA6902F0030292009340BA691343BB6190
:101904003549FB699B080233BA6941F82320384BF7
:101914009B68BB613B69DB43BA691340BB613B68AD
:101924005B6803F48013002B03D0BA693B6913434B
:10193400BB612F4ABB6993602D4BDB68BB613B697C
:10194400DB43BA691340BB613B685B6803F4001373
:10195400002B03D0BA693B691343BB61244ABB69BA
:10196400D360234B5B68BB613B69DB43BA691340BB
:10197400BB613B685B6803F40033002B03D0BA6996
:101984003B691343BB611A4ABB695360184B1B681C
:10199400BB613B69DB43BA691340BB613B685B686D
:1019A40003F48033002B03D0BA693B691343BB6152
:1019B4000F4ABB691360FB690133FB61FB690F2BA1
:1019C4007FF6A2AE00BF00BF2437BD465DF8047B9E
:1019D400704700BF00380240003801400000024058
:1019E4000004024000080240000C024000100240C3
:1019F400003C014080B485B000AF78600B467B802A
:101A04007B681A697B881340002B02D00123FB7387
:101A140001E00023FB73FB7B18461437BD465DF8D9
:101A2400047B704780B483B000AF78600B467B8042
:101A340013467B707B78002B03D07A887B689A618D
:101A440003E07B881A047B689A6100BF0C37BD46AB
:101A54005DF8047B7047000080B582B000AF034698
:101A6400FB80084B5A69FB881340002B06D0054ABB
:101A7400FB885361FB881846FEF77CFD00BF0837DE
:101A8400BD4680BD003C014080B586B000AF7860A3
:101A94007B68002B01D1012367E27B681B6803F09C
:101AA4000103002B75D0884B9B6803F00C03042BB7
:101AB4000CD0854B9B6803F00C03082B12D1824B8E
:101AC4005B6803F48003B3F5800F0BD17E4B1B6876
:101AD40003F40033002B5BD07B685B68002B57D189
:101AE400012342E27B685B68B3F5803F06D1764B05
:101AF4001B68754A43F4803313601DE07B685B68A0
:101B0400B3F5A02F0CD1704B1B686F4A43F48023AC
:101B140013606D4B1B686C4A43F4803313600BE015
:101B2400694B1B68684A23F480331360664B1B6857
:101B3400654A23F4802313607B685B68002B13D011
:101B4400FFF792FC386108E0FFF78EFC02463B6920
:101B5400D31A642B01D9032307E25B4B1B6803F4FC
:101B64000033002BF0D014E0FFF77EFC386108E06E
:101B7400FFF77AFC02463B69D31A642B01D903238D
:101B8400F3E1514B1B6803F40033002BF0D100E068
:101B940000BF7B681B6803F00203002B63D04A4B31
:101BA4009B6803F00C03002B0BD0474B9B6803F09E
:101BB4000C03082B1CD1444B5B6803F48003002BFB
:101BC40016D1414B1B6803F00203002B05D07B6840
:101BD400DB68012B01D00123C7E13B4B1B6823F0D9
:101BE400F8027B681B69DB00374913430B603AE05A
:101BF4007B68DB68002B20D0344B01221A60FFF78E
:101C040033FC386108E0FFF72FFC02463B69D31A26
:101C1400022B01D90323A8E12B4B1B6803F0020319
:101C2400002BF0D0284B1B6823F0F8027B681B695B
:101C3400DB00254913430B6015E0244B00221A6096
:101C4400FFF712FC386108E0FFF70EFC02463B691F
:101C5400D31A022B01D9032387E11B4B1B6803F022
:101C64000203002BF0D17B681B6803F00803002BF0
:101C740036D07B685B69002B16D0154B01221A60A5
:101C8400FFF7F2FB386108E0FFF7EEFB02463B6921
:101C9400D31A022B01D9032367E10B4B5B6F03F0CB
:101CA4000203002BF0D01BE0094B00221A60FFF75F
:101CB400DBFB38610EE0FFF7D7FB02463B69D31A22
:101CC400022B07D9032350E10038024000004742A9
:101CD400800E4742884B5B6F03F00203002BEAD16E
:101CE4007B681B6803F00403002B00F0978000233B
:101CF400FB75814B1B6C03F08053002B0FD1002329
:101D0400BB607D4B1B6C7C4A43F0805313647A4B5D
:101D14001B6C03F08053BB60BB680123FB75774BDE
:101D24001B6803F48073002B18D1744B1B68734A2F
:101D340043F480731360FFF797FB386108E0FFF703
:101D440093FB02463B69D31A022B01D903230CE10E
:101D54006A4B1B6803F48073002BF0D07B689B688C
:101D6400012B06D1644B1B6F634A43F001031367D5
:101D74001CE07B689B68052B0CD15F4B1B6F5E4A94
:101D840043F0040313675C4B1B6F5B4A43F001038E
:101D940013670BE0584B1B6F574A23F0010313677B
:101DA400554B1B6F544A23F0040313677B689B68ED
:101DB400002B15D0FFF758FB38610AE0FFF754FBFE
:101DC40002463B69D31A41F28832934201D9032374
:101DD400CBE0494B1B6F03F00203002BEED014E061
:101DE400FFF742FB38610AE0FFF73EFB02463B691E
:101DF400D31A41F28832934201D90323B5E03E4B12
:101E04001B6F03F00203002BEED1FB7D012B05D1E8
:101E1400394B1B6C384A23F0805313647B689B69ED
:101E2400002B00F0A180344B9B6803F00C03082BBB
:101E34005CD07B689B69022B41D1314B00221A6034
:101E4400FFF712FB386108E0FFF70EFB02463B691F
:101E5400D31A022B01D9032387E0274B1B6803F015
:101E64000073002BF0D17B68DA697B681B6A1A4324
:101E74007B685B6A9B011A437B689B6A5B08013B36
:101E84001B041A437B68DB6A1B061B4913434B6024
:101E94001B4B01221A60FFF7E7FA386108E0FFF7ED
:101EA400E3FA02463B69D31A022B01D903235CE00F
:101EB400114B1B6803F00073002BF0D054E0104B5F
:101EC40000221A60FFF7D0FA386108E0FFF7CCFA75
:101ED40002463B69D31A022B01D9032345E0064B82
:101EE4001B6803F00073002BF0D13DE07B689B6915
:101EF400012B07D1012338E0003802400070004074
:101F0400600047421B4B5B68FB607B689B69012B4D
:101F140028D0FB6803F480027B68DB699A4221D1F4
:101F2400FB6803F03F027B681B6A9A421AD1FA6885
:101F340047F6C07313407A68526A9201934211D1F2
:101F4400FB6803F440327B689B6A5B08013B1B041B
:101F54009A4207D1FB6803F070627B68DB6A1B0658
:101F64009A4201D0012300E0002318461837BD46E9
:101F740080BD00BF0038024080B584B000AF7860F7
:101F840039607B68002B01D10123CCE0684B1B68CE
:101F940003F007033A689A420CD9654B3A68D2B207
:101FA4001A70634B1B6803F007033A689A4201D026
:101FB4000123B8E07B681B6803F00203002B20D0E8
:101FC4007B681B6803F00403002B05D0594B9B6806
:101FD400584A43F4E05393607B681B6803F008039A
:101FE400002B05D0534B9B68524A43F460439360E3
:101FF400504B9B6823F0F0027B689B684D49134368
:102004008B607B681B6803F00103002B44D07B6862
:102014005B68012B07D1474B1B6803F40033002B8B
:1020240019D101237FE07B685B68022B03D07B68B6
:102034005B68032B07D13F4B1B6803F00073002B35
:1020440009D101236FE03B4B1B6803F00203002B13
:1020540001D1012367E0374B9B6823F003027B68BF
:102064005B68344913438B60FFF7FEF9F8600AE0BC
:10207400FFF7FAF90246FB68D31A41F28832934219
:1020840001D903234FE02B4B9B6803F00C027B68C0
:102094005B689B009A42EBD1254B1B6803F0070356
:1020A4003A689A420CD2224B3A68D2B21A70204B48
:1020B4001B6803F007033A689A4201D0012332E017
:1020C4007B681B6803F00403002B08D0194B9B6842
:1020D40023F4E0527B68DB68164913438B607B680A
:1020E4001B6803F00803002B09D0124B9B6823F4F0
:1020F40060427B681B69DB000E4913438B6000F070
:1021040021F802460B4B9B681B0903F00F030A4995
:10211400CB5C22FA03F3094A1360094B1B68184687
:10212400FFF75EF9002318461037BD4680BD00BF97
:10213400003C024000380240E839000878000020E2
:102144007C0000202DE9B04F90B000AF00237B63EA
:102154000023FB6300233B630023BB63594B9B6851
:1021640003F00C03082B0DD0082B00F2A180002BE8
:1021740002D0042B03D09BE0534BBB639BE0534B37
:10218400BB6398E04F4B5B6803F03F037B634D4BAD
:102194005B6803F48003002B28D04A4B5B689B09DF
:1021A40000223B627A623B6AC3F308000021474B7A
:1021B40003FB01F2002300FB03F31344434AA0FB97
:1021C4000212FA620A46BA62FA6A1344FB627B6B31
:1021D4000022BB61FA61D7E90623D7E90A01FDF7BA
:1021E400F7FF02460B461346FB6353E0354B5B682F
:1021F4009B0900223B617A613B69C3F3080A4FF0F3
:10220400000B52465B464FF000004FF000015901AD
:1022140041EAD261500102460B46B2EB0A0863EB75
:102224000B094FF000024FF000034FEA891343EA11
:1022340098634FEA8812B2EB080463EB09054FF088
:1022440000024FF00003EB0043EA5473E20014462B
:102254001D4614EB0A033B6045EB0B037B604FF018
:1022640000024FF00003D7E9004529468B022146BE
:1022740043EA915321468A02104619467B6B002299
:10228400BB60FA60D7E90223FDF7A2FF02460B46C2
:102294001346FB630B4B5B681B0C03F00303013316
:1022A4005B003B63FA6B3B6BB2FBF3F3BB6302E093
:1022B400054BBB6300BFBB6B18464037BD46BDE84A
:1022C400B08F00BF003802400024F40040787D0144
:1022D40080B400AF034B1B681846BD465DF8047B11
:1022E400704700BF7800002080B500AFFFF7F0FF13
:1022F4000246054B9B689B0A03F007030349CB5C2A
:1023040022FA03F3184680BD00380240F839000869
:1023140080B500AFFFF7DCFF0246054B9B685B0B03
:1023240003F007030349CB5C22FA03F3184680BD8C
:1023340000380240F839000880B582B000AF7860F8
:102344007B68002B01D101237BE07B685B6A002B57
:1023540008D17B685B68B3F5827F09D07B68002273
:10236400DA6105E07B6800221A617B6800225A6109
:102374007B6800229A627B6893F85130DBB2002BB1
:1023840006D17B68002283F850207868FEF7D6FCDB
:102394007B68022283F851207B681B681A687B687B
:1023A4001B6822F040021A607B685B6803F4827247
:1023B4007B689B6803F404431A437B68DB6803F47B
:1023C40000631A437B681B6903F002031A437B68AA
:1023D4005B6903F001031A437B689B6903F4007390
:1023E4001A437B68DB6903F038031A437B681B6A72
:1023F40003F0800342EA03017B689B6A03F4005202
:102404007B681B680A431A607B689B691B0C03F09A
:1024140004017B685B6A03F010027B681B680A4353
:102424005A607B681B68DA697B681B6822F4006267
:10243400DA617B6800225A657B68012283F85120A7
:10244400002318460837BD4680BD80B588B000AF6C
:10245400F860B9603B601346FB80FFF705F8F8614C
:10246400FB887B83FB6893F85130DBB2012B01D0EE
:1024740002232AE1BB68002B02D0FB88002B01D188
:10248400012322E1FB6893F85030012B01D1022390
:102494001BE1FB68012283F85020FB68032283F8C8
:1024A4005120FB6800225A65FB68BA681A63FB680E
:1024B400FA889A86FB68FA88DA86FB6800229A63AF
:1024C400FB6800229A87FB680022DA87FB680022F7
:1024D4005A64FB6800221A64FB689B68B3F5004FDA
:1024E4000FD1FB681B681A68FB681B6822F0400266
:1024F4001A60FB681B681A68FB681B6842F4804218
:102504001A60FB681B681B6803F04003402B07D06C
:10251400FB681B681A68FB681B6842F040021A607B
:10252400FB68DB68B3F5006F52D1FB685B68002B76
:1025340002D07B8B012B45D1FB681B6B1A88FB688F
:102544001B68DA60FB681B6B9A1CFB681A63FB68E8
:10255400DB8E9BB2013B9AB2FB68DA8632E0FB6801
:102564001B689B6803F00203022B12D1FB681B6BF0
:102574001A88FB681B68DA60FB681B6B9A1CFB6893
:102584001A63FB68DB8E9BB2013B9AB2FB68DA8666
:1025940018E0FEF769FF0246FB69D31A3A689A42CB
:1025A40003D83B68B3F1FF3F02D13B68002B09D14C
:1025B400FB68012283F85120FB68002283F8502035
:1025C400032382E0FB68DB8E9BB2002BC7D153E070
:1025D400FB685B68002B02D07B8B012B47D1FB6827
:1025E4001A6BFB681B680C3312781A70FB681B6B40
:1025F4005A1CFB681A63FB68DB8E9BB2013B9AB2E0
:10260400FB68DA8633E0FB681B689B6803F002030F
:10261400022B13D1FB681A6BFB681B680C3312780E
:102624001A70FB681B6B5A1CFB681A63FB68DB8E11
:102634009BB2013B9AB2FB68DA8618E0FEF714FFFE
:102644000246FB69D31A3A689A4203D83B68B3F14D
:10265400FF3F02D13B68002B09D1FB68012283F8BC
:102664005120FB68002283F8502003232DE0FB68EF
:10267400DB8E9BB2002BC6D1FA693968F86800F08A
:10268400B1F80346002B02D0FB6820225A65FB6890
:102694009B68002B0AD100237B61FB681B68DB6805
:1026A4007B61FB681B689B687B617B69FB6801221B
:1026B40083F85120FB68002283F85020FB685B6D8F
:1026C400002B01D0012300E0002318462037BD462B
:1026D40080BD000080B588B000AFF860B9603B6091
:1026E4001346FB71FEF7C0FE0246BB6A9B1A3A68AA
:1026F4001344FB61FEF7B8FEB861394B1B685B01FC
:102704001B0DFA6902FB03F37B6154E03B68B3F1F0
:10271400FF3F50D0FEF7A8FE0246BB69D31AFA6900
:102724009A4202D9FB69002B3DD1FB681B685A68A9
:10273400FB681B6822F0E0025A60FB685B68B3F533
:10274400827F11D1FB689B68B3F5004F04D0FB680E
:102754009B68B3F5806F07D1FB681B681A68FB6838
:102764001B6822F040021A60FB689B6AB3F5005FA5
:102774000FD1FB681B681A68FB681B6822F40052BF
:102784001A60FB681B681A68FB681B6842F40052F5
:102794001A60FB68012283F85120FB68002283F849
:1027A4005020032317E07B69002B01D10023FB6138
:1027B4007B69013B7B61FB681B689A68BB681340BB
:1027C400BA689A420CBF01230023DBB21A46FB7994
:1027D4009A429BD1002318462037BD4680BD00BFD6
:1027E4007800002080B588B002AFF860B9607A60E4
:1027F4007B680093BB6801220221F868FFF76AFF37
:102804000346002B07D0FB685B6D43F02002FB6896
:102814005A65032332E01B4B1B681B4AA2FB0323AC
:102824005B0D4FF47A7202FB03F37B61FB685B6818
:10283400B3F5827F12D17B680093BB6800228021AC
:10284400F868FFF747FF0346002B16D0FB685B6D63
:1028540043F02002FB685A6503230FE07B69002BD9
:102864000AD07B69013B7B61FB681B689B6803F0B2
:102874008003802BF2D000E000BF002318461837F5
:10288400BD4680BD78000020819F5E1680B582B071
:1028940000AF78607B68002B01D1012341E07B68A5
:1028A40093F83D30DBB2002B06D17B68002283F81D
:1028B4003C207868FEF7C0FA7B68022283F83D204A
:1028C4007B681A687B6804331946104600F09EFA48
:1028D4007B68012283F846207B68012283F83E202E
:1028E4007B68012283F83F207B68012283F8402023
:1028F4007B68012283F841207B68012283F842200F
:102904007B68012283F843207B68012283F84420FA
:102914007B68012283F845207B68012283F83D20EF
:10292400002318460837BD4680BD000080B485B03A
:1029340000AF78607B6893F83D30DBB2012B01D0A7
:10294400012344E07B68022283F83D207B681B68F6
:10295400DA687B681B6842F00102DA607B681B68F6
:102964001E4A934218D07B681B68B3F1804F13D082
:102974007B681B681A4A93420ED07B681B68194A0D
:10298400934209D07B681B68174A934204D07B6842
:102994001B68164A934211D17B681B689B6803F03D
:1029A4000703FB60FB68062B10D07B681B681A6862
:1029B4007B681B6842F001021A6007E07B681B68B1
:1029C4001A687B681B6842F001021A6000231846EB
:1029D4001437BD465DF8047B704700BF000001401A
:1029E4000004004000080040000C0040004001408A
:1029F40080B483B000AF78607B681B68DA687B685A
:102A04001B6822F00102DA607B681B681A6A41F2D3
:102A140011131340002B0FD17B681B681A6A40F214
:102A240044431340002B07D17B681B681A687B68FA
:102A34001B6822F001021A607B68012283F83D20A2
:102A4400002318460C37BD465DF8047B704780B5FB
:102A540084B000AF78607B681B68DB68FB607B68D0
:102A64001B681B69BB60BB6803F00203002B20D00A
:102A7400FB6803F00203002B1BD07B681B686FF01C
:102A840002021A617B6801221A777B681B689B69C2
:102A940003F00303002B03D0786800F099F905E0F4
:102AA400786800F08BF9786800F09CF97B68002264
:102AB4001A77BB6803F00403002B20D0FB6803F0F3
:102AC4000403002B1BD07B681B686FF004021A619F
:102AD4007B6802221A777B681B689B6903F4407346
:102AE400002B03D0786800F073F905E0786800F0F3
:102AF40065F9786800F076F97B6800221A77BB687C
:102B040003F00803002B20D0FB6803F00803002B1C
:102B14001BD07B681B686FF008021A617B68042273
:102B24001A777B681B68DB6903F00303002B03D06F
:102B3400786800F04DF905E0786800F03FF97868AE
:102B440000F050F97B6800221A77BB6803F0100389
:102B5400002B20D0FB6803F01003002B1BD07B68F4
:102B64001B686FF010021A617B6808221A777B6871
:102B74001B68DB6903F44073002B03D0786800F012
:102B840027F905E0786800F019F9786800F02AF967
:102B94007B6800221A77BB6803F00103002B0CD07A
:102BA400FB6803F00103002B07D07B681B686FF000
:102BB40001021A617868FDF7FFFCBB6803F080032B
:102BC400002B0CD0FB6803F08003002B07D07B683C
:102BD4001B686FF080021A61786800F0B5FABB6870
:102BE40003F04003002B0CD0FB6803F04003002BE0
:102BF40007D07B681B686FF040021A61786800F0A8
:102C0400FBF8BB6803F02003002B0CD0FB6803F037
:102C14002003002B07D07B681B686FF020021A6129
:102C2400786800F087FA00BF1037BD4680BD80B5D4
:102C340084B000AF786039600023FB737B6893F83D
:102C44003C30012B01D10223B4E07B68012283F8DC
:102C54003C207B68022283F83D207B681B689B68CC
:102C6400BB60BB6823F07703BB60BB6823F47F437E
:102C7400BB607B681B68BA689A603B681B68B3F5E5
:102C8400005F3ED0B3F5005F00F28780B3F5805F4C
:102C940000F08680B3F5805F7FD8702B1AD0702B3C
:102CA4007BD8602B50D0602B77D8502B3CD0502B46
:102CB40073D8402B58D0402B6FD8302B64D0302B96
:102CC4006BD8202B60D0202B67D8002B5CD0102B26
:102CD4005AD062E07B6818683B6899683B685A6818
:102CE4003B68DB6800F098F97B681B689B68BB60F5
:102CF400BB6843F07703BB607B681B68BA689A6063
:102D04004FE07B6818683B6899683B685A683B6881
:102D1400DB6800F081F97B681B689A687B681B6834
:102D240042F480429A603CE07B6818683B685968CA
:102D34003B68DB681A4600F0F5F87B681B68502195
:102D4400184600F04EF92CE07B6818683B68596817
:102D54003B68DB681A4600F014F97B681B68602145
:102D6400184600F03EF91CE07B6818683B68596817
:102D74003B68DB681A4600F0D5F87B681B68402185
:102D8400184600F02EF90CE07B681A683B681B6853
:102D94001946104600F025F903E00123FB7300E017
:102DA40000BF7B68012283F83D207B68002283F802
:102DB4003C20FB7B18461037BD4680BD80B483B0F1
:102DC40000AF786000BF0C37BD465DF8047B7047E8
:102DD40080B483B000AF786000BF0C37BD465DF8A7
:102DE400047B704780B483B000AF786000BF0C37B9
:102DF400BD465DF8047B704780B483B000AF786053
:102E040000BF0C37BD465DF8047B704780B485B0C5
:102E140000AF786039607B681B68FB607B683A4A66
:102E240093420FD07B68B3F1804F0BD07B68374A55
:102E3400934207D07B68364A934203D07B68354A75
:102E4400934208D1FB6823F07003FB603B685B6826
:102E5400FA681343FB607B682B4A93421BD07B6860
:102E6400B3F1804F17D07B68284A934213D07B6814
:102E7400274A93420FD07B68264A93420BD07B6843
:102E8400254A934207D07B68244A934203D07B6847
:102E9400234A934208D1FB6823F44073FB603B68E8
:102EA400DB68FA681343FB60FB6823F080023B682D
:102EB4005B691343FB607B68FA681A603B689A6835
:102EC4007B68DA623B681A687B689A627B680E4AA0
:102ED400934203D13B681A697B681A637B680122B9
:102EE4005A617B681B6903F00103012B05D17B68E0
:102EF4001B6923F001027B681A6100BF1437BD46C9
:102F04005DF8047B704700BF0000014000040040EE
:102F140000080040000C0040004001400044014013
:102F24000048014080B487B000AFF860B9607A60AF
:102F3400FB681B6A7B61FB681B6A23F00102FB6868
:102F44001A62FB689B693B613B6923F0F0033B61B8
:102F54007B681B013A6913433B617B6923F00A03D5
:102F64007B617A69BB6813437B61FB683A699A6148
:102F7400FB687A691A6200BF1C37BD465DF8047BA2
:102F8400704780B487B000AFF860B9607A60FB68BE
:102F94001B6A7B61FB681B6A23F01002FB681A62E0
:102FA400FB689B693B613B6923F470433B617B682D
:102FB4001B033A6913433B617B6923F0A0037B61E4
:102FC400BB681B017A6913437B61FB683A699A61A8
:102FD400FB687A691A6200BF1C37BD465DF8047B42
:102FE400704780B485B000AF786039607B689B68B7
:102FF400FB60FB6823F07003FB603A68FB681343D3
:1030040043F00703FB607B68FA689A6000BF1437DB
:10301400BD465DF8047B704780B487B000AFF860AC
:10302400B9607A603B60FB689B687B617B6923F4D1
:103034007F437B613B681A027B681A43BB68134376
:103044007A6913437B61FB687A699A6000BF1C3715
:10305400BD465DF8047B704780B485B000AF7860EE
:1030640039607B6893F83C30012B01D1022350E096
:103074007B68012283F83C207B68022283F83D2090
:103084007B681B685B68FB607B681B689B68BB6034
:10309400FB6823F07003FB603B681B68FA6813430A
:1030A400FB607B681B68FA685A607B681B681C4A73
:1030B400934218D07B681B68B3F1804F13D07B68B0
:1030C4001B68184A93420ED07B681B68164A9342C9
:1030D40009D07B681B68154A934204D07B681B683F
:1030E400134A93420CD1BB6823F08003BB603B6856
:1030F4005B68BA681343BB607B681B68BA689A60F4
:103104007B68012283F83D207B68002283F83C2001
:10311400002318461437BD465DF8047B704700BF92
:10312400000001400004004000080040000C004082
:103134000040014080B483B000AF786000BF0C371A
:10314400BD465DF8047B704780B483B000AF7860FF
:1031540000BF0C37BD465DF8047B704780B582B074
:1031640000AF78607B68002B01D1012342E07B68CB
:1031740093F84130DBB2002B06D17B68002283F840
:1031840040207868FDF780FE7B68242283F8412084
:103194007B681B68DA687B681B6822F40052DA607B
:1031A400786800F073F97B681B681A697B681B6890
:1031B40022F490421A617B681B685A697B681B6819
:1031C40022F02A025A617B681B68DA687B681B68F4
:1031D40042F40052DA607B6800225A647B68202241
:1031E40083F841207B68202283F842207B680022F8
:1031F4005A63002318460837BD4680BD80B58AB09F
:1032040002AFF860B9603B601346FB8000237B612A
:10321400FB6893F84130DBB2202B75D1BB68002BDF
:1032240002D0FB88002B01D101236EE0FB68002251
:103234005A64FB68212283F84120FEF715F978616E
:10324400FB68FA889A84FB68FA88DA84FB689B68CE
:10325400B3F5805F08D1FB681B69002B04D1002300
:10326400FB61BB68BB6103E0BB68FB610023BB611E
:103274002EE03B6800937B6900228021F86800F00F
:1032840048F80346002B05D0FB68202283F8412030
:1032940003233AE0FB69002B0BD1BB691B881A4658
:1032A400FB681B68C2F308025A60BB690233BB6146
:1032B40007E0FB691A78FB681B685A60FB690133F5
:1032C400FB61FB68DB8C9BB2013B9AB2FB68DA843E
:1032D400FB68DB8C9BB2002BCBD13B6800937B69F2
:1032E40000224021F86800F014F80346002B05D0B2
:1032F400FB68202283F84120032306E0FB68202298
:1033040083F84120002300E0022318462037BD46FD
:1033140080BD80B586B000AFF860B9603B601346ED
:10332400FB713BE03B6AB3F1FF3F37D0FEF79CF8FB
:1033340002463B68D31A3A6A9A4202D33B6A002B8C
:1033440001D103233AE0FB681B68DB6803F0040344
:10335400002B23D0BB68802B20D0BB68402B1DD012
:10336400FB681B681B6803F00803082B16D10023B5
:103374007B61FB681B681B687B61FB681B685B687F
:103384007B617B69F86800F01DF8FB6808225A64C9
:10339400FB68002283F8402001230FE0FB681B68D0
:1033A4001A68BB681340BA689A420CBF0123002311
:1033B400DBB21A46FB799A42B4D000231846183778
:1033C400BD4680BD80B495B000AF78607B681B6853
:1033D4000C337B637B6B53E8003F3B633B6B23F411
:1033E4009073FB647B681B680C33FA6C3A64FB6370
:1033F400F96B3A6C41E80023BB63BB6B002BE5D14E
:103404007B681B6814333B623B6A53E8003FFB61F3
:10341400FB6923F00103BB647B681B681433BA6C3B
:10342400FA62BB62B96AFA6A41E800237B627B6A8A
:10343400002BE5D17B681B6B012B19D17B681B68C2
:103444000C33FB60FB6853E8003FBB60BB6823F0B0
:1034540010037B647B681B680C337A6CBA617B61F4
:103464007969BA6941E800233B613B69002BE5D1E6
:103474007B68202283F842207B6800221A6300BF05
:103484005437BD465DF8047B704700002DE9B04F0A
:10349400C0B000AFC7F8F400D7F8F4301B681B695C
:1034A40023F44050D7F8F430D968D7F8F4301A68C8
:1034B40040EA01031361D7F8F4309A68D7F8F4307E
:1034C4001B691A43D7F8F4305B691A43D7F8F43010
:1034D400DB691343C7F8F830D7F8F4301B68DB68AE
:1034E40023F4164121F00C01D7F8F4301A68D7F808
:1034F400F8300B43D360D7F8F4301B685B6923F4CE
:103504004070D7F8F4309969D7F8F4301A6840EA73
:1035140001035361D7F8F4301A688F4B9A4205D0EF
:10352400D7F8F4301A688D4B9A4204D1FEF7F0FEB6
:10353400C7F8FC0003E0FEF7D7FEC7F8FC00D7F895
:10354400F430DB69B3F5004F40F00C81D7F8FC3060
:103554000022C7F8E830C7F8EC20D7E93A452246FC
:103564002B469118B9655B41FB65D7E916232146C3
:1035740012EB0108294643EB01094FF000024FF01A
:1035840000034FEAC90343EA58734FEAC80290465E
:103594009946234618EB0303C7F8E0302B4649EB62
:1035A4000303C7F8E430D7F8F4305B680022C7F8A7
:1035B400D830C7F8DC20D7E936120B46DB183B6558
:1035C400134642EB03037B65D7E91423D7E938019B
:1035D400FCF7FEFD02460B46614BA3FB02235B098D
:1035E4001C01D7F8FC300022C7F8D030C7F8D4202B
:1035F400D7E9348942464B469118B9645B41FB6470
:10360400D7E91223414612EB010A494643EB010B69
:103614004FF000024FF000034FEACB0343EA5A7322
:103624004FEACA0292469B4643461AEB0303C7F885
:10363400C8304B464BEB0303C7F8CC30D7F8F43013
:103644005B680022C7F8C030C7F8C420D7E930123D
:103654000B46DB183B64134642EB03037B64D7E958
:103664001023D7E93201FCF7B3FD02460B4611469D
:103674003B4BA3FB01235B09642202FB03F3CB1A3C
:10368400DB0003F13202364BA3FB02235B095B0030
:1036940003F4F8731C44D7F8FC300022C7F8B830A0
:1036A400C7F8BC20D7E92E8942464B469118B96326
:1036B4005B41FB63D7E90E23414651183963494600
:1036C4004B417B634FF000024FF00003D7E90CAB92
:1036D4005946CB00514643EA51735146CA0010463D
:1036E4001946034642469B18C7F8B0304B460A4673
:1036F40042EB0303C7F8B430D7F8F4305B68002218
:10370400C7F8A830C7F8AC20D7E92A120B46DB1853
:10371400BB62134642EB0303FB62D7E90A23D7E9F2
:103724002C01FCF755FD02460B460D4BA3FB02137F
:103734005B09642101FB03F3D31ADB003233084A2B
:10374400A2FB03235B0903F00702D7F8F4301B68DC
:1037540022449A6006E100BF0010014000140140B9
:103764001F85EB51D7F8FC300022C7F8A030C7F80A
:10377400A420D7E9288942464B46911839625B4117
:103784007B62D7E9082341465418494643EB0105B7
:103794004FF000024FF00003EB0043EA5473E200E1
:1037A40014461D464346E318C7F898304B4645EB8C
:1037B4000303C7F89C30D7F8F4305B680022C7F8DD
:1037C4009030C7F894204FF000024FF00003D7E97F
:1037D400244529468B00214643EA917321468A00F9
:1037E400D7E92601FCF7F4FC02460B46604BA3FB29
:1037F40002235B091C01D7F8FC300022C7F888308B
:10380400C7F88C20D7E9228942464B469118B96102
:103814005B41FB61D7E906234146511839614946AA
:103824004B417B614FF000024FF00003D7E904AB3A
:103834005946CB00514643EA51735146CA001046DB
:103844001946034642469B18C7F880304B460A4641
:1038540042EB0303C7F88430D7F8F4305B680022E6
:10386400BB67FA674FF000024FF00003D7E91E89E7
:1038740049468B00414643EA917341468A00D7E9A1
:103884002001FCF7A5FC02460B461146384BA3FB6E
:1038940001235B09642202FB03F3CB1A1B013233BD
:1038A400334AA2FB03235B0903F0F0031C44D7F85B
:1038B400FC3000223B677A67D7E91C8942464B46B5
:1038C4009118B9605B41FB60D7E902234146511866
:1038D400396049464B417B604FF000024FF00003D2
:1038E400D7E900AB5946CB00514643EA51735146E0
:1038F400CA0010461946034642469B18BB664B460F
:103904000A4642EB0303FB66D7F8F4305B680022F7
:103914003B667A664FF000024FF00003D7E918893E
:1039240049468B00414643EA917341468A00D7E9F0
:103934001A01FCF74DFC02460B460D4BA3FB021388
:103944005B09642101FB03F3D31A1B013233084AD8
:10395400A2FB03235B0903F00F02D7F8F4301B68C2
:1039640022449A6000BF07F58077BD46BDE8B08F5A
:103974001F85EB5102440346934200D1704703F87C
:10398400011BF9E770B50D4D0D4C641BA410002606
:10399400A64209D10B4D0C4C00F018F8641BA4107E
:1039A4000026A64205D170BD55F8043B9847013660
:1039B400EEE755F8043B98470136F2E7083A000869
:1039C400083A0008083A00080C3A0008F8B500BFA5
:1039D400F8BC08BC9E467047F8B500BFF8BC08BCEC
:0439E4009E46704744
:1039E80000000000000000000102030406070809A7
:0839F8000000000001020304BD
:083A000004C8FF7F0100000073
:043A0800B9010008F8
:043A0C009501000818
:103A1000000000010302020103030201E70700089E
:103A2000E7070008E7070008E70700088107000824
:103A3000AD070008E707000881070008AD07000888
:103A4000E707000881070008AD070008D90700084C
:103A5000D9070008D9070008F7070008050800087B
:103A60001908000827080008350800084908000858
:103A700057080008650800087908000801000200DE
:103A800004004000800000010024F4001000000049
:043A90000100000031
:0400000508001009D6
:00000001FF
